:020000040800F2
:10000000080600209D010008952700088B1D0008A8
:1000100089270008A9020008712D000800000000CF
:100020000000000000000000000000005F28000841
:10003000AD020008000000005D28000861280008EB
:10004000B7010008B7010008B7010008B7010008B0
:10005000B7010008B7010008B7010008B7010008A0
:10006000B7010008B7010008B7010008B701000890
:10007000B7010008B7010008B7010008B701000880
:10008000B7010008B7010008B7010008B701000870
:10009000B7010008B7010008B7010008B701000860
:1000A000B7010008B7010008B7010008B701000850
:1000B000B7010008B7010008B7010008B701000840
:1000C000B7010008B7010008B7010008B701000830
:1000D000B7010008612D0008B7010008B70100084A
:1000E000B7010008B7010008B7010008B701000810
:1000F000B7010008B7010008B7010008B701000800
:10010000B7010008B7010008B7010008B7010008EF
:10011000B7010008B70100087D280008B7010008F2
:10012000B7010008B7010008B7010008B7010008CF
:10013000B7010008B7010008B7010008B7010008BF
:10014000B7010008B7010008B7010008B7010008AF
:10015000B7010008B7010008B7010008B70100089F
:10016000B7010008B7010008B7010008B70100088F
:10017000B7010008B7010008B7010008000000003F
:10018000B7010008B7010008DFF80CD000F07AF8DA
:10019000004800470D320008080600200648804746
:1001A00006480047FEE7FEE7FEE7FEE7FEE7FEE75C
:1001B000FEE7FEE7FEE7FEE7692800088901000880
:1001C0002DE9F05F0546002092469B46884606468C
:1001D000814640241BE0284641464746224600F01F
:1001E00041F853465A46C01A914110D31146184659
:1001F000224600F028F82D1A67EB01084F462246E8
:100200000120002100F01FF817EB00094E41201ECD
:10021000A4F10104DFDC484631462A464346BDE8E6
:10022000F09FD2B201E000F8012B491EFBD27047CB
:100230000022F6E710B513460A4604461946FFF7B2
:10024000F0FF204610BD202A04DB203A00FA02F11C
:10025000002070479140C2F1200320FA03F31943B4
:1002600090407047202A04DB203A21FA02F0002156
:10027000704721FA02F3D040C2F1200291400843B6
:1002800019467047064C074D06E0E06840F0010350
:1002900094E8070098471034AC42F6D3FFF778FF94
:1002A000443300086433000800BFFEE7704710B510
:1002B000024692F82030012B01D0022B1CD101F014
:1002C000010028B11068806840F080001468A060C8
:1002D00001F0020028B11068806840F40040146802
:1002E000A06001F0040028B11068806840F40000AC
:1002F0001468A060002010BD506A40F48020506255
:100300000120F8E7F0B504460D461E4694F820702B
:1003100020688368A86800B900E000BF012F01D001
:10032000022F7CD103F0806030B903F0006018B96F
:1003300003F08050002873D0C3F30161022905D96E
:10034000606A40F4000060620120F0BD0120884036
:100350003060A86860B9B5F800C0E86840EA4C5C55
:10036000206800F5C07000EB0110C0F800C00FE07D
:10037000D5E901C040EACC00D5F80CC040EA0C0039
:10038000D4F800C00CF5C07C0CEB011CCCF80000CC
:10039000D5F810C0206800F5C07000EB0110C0F85F
:1003A00004C0287D01280ED1206800F5C07000EB44
:1003B0000110406840F4807C206800F5C07000EBBC
:1003C0000110C0F804C0D079000692F806C040EAD7
:1003D0000C4092F805C040EA0C2C10794CEA000C55
:1003E000206800F5C07000EB0110C0F80CC0D07898
:1003F000000692F802C040EA0C4092F801C040EAC0
:100400000C2092F800C040EA0C00D4F800C00CF5B3
:10041000C07C0CEB011CCCF80800206801E016E061
:100420000FE000F5C07000EB0110006840F0010C17
:10043000206800F5C07000EB0110C0F800C000207B
:1004400083E7606A40F40010606201207DE7606A23
:1004500040F480206062012077E70000F0B5044698
:100460000A46216894F82050012D01D0022D7ED13A
:10047000424901F50071086840F001000860086811
:1004800020F47C5008600868566A40EA062008603C
:10049000107D00F01F06012000FA06F3C86998439A
:1004A000C861A1F50071D069C8B9D1F80C029843B0
:1004B000C1F80C02908880B2968940EA064601F5A0
:1004C0001070576940F83760108880B2168940EA8A
:1004D000064601F51070576900EBC7004660D06909
:1004E000012819D1D1F80C021843C1F80C029088E8
:1004F00080B2168840EA064601F51070576940F848
:100500003760908980B2168940EA064601F510707E
:10051000576900EBC7004660906928B9D1F804021A
:100520009843C1F8040204E0D1F804021843C1F86A
:100530000402106928B9D1F814029843C1F81402D2
:1005400004E0D1F814021843C1F81402106A01281B
:1005500004D1D1F81C021843C1F81C02D1F80002E2
:1005600020F00100C1F800020020F0BDFFE7606A42
:1005700040F4802060620120F7E700000064004042
:1005800010B50246002092F82030012B01D0022B3A
:1005900009D121B91468E46804F0030003E0146889
:1005A000246904F0030010BD70B5044694F820508F
:1005B000012D01D0022D7DD151B92068C06800F015
:1005C000030080B9606A40F400106062012070BDD1
:1005D0002068006900F0030028B9606A40F4001048
:1005E00060620120F3E7206800F5D87000EB01108D
:1005F000006800F004009060906840B9206800F541
:10060000D87000EB01100068400D106007E0206812
:1006100000F5D87000EB01100068C0085060206839
:1006200000F5D87000EB0110006800F00200D06007
:10063000206800F5D87000EB0110406800F00F0052
:100640001061206800F5D87000EB0110406800F4DC
:100650007F40000A9061206800F5D87000EB01101F
:100660004068000C5061206800F5D87000EB011064
:1006700080681870206800F5D87000EB0110806861
:1006800000F47F40000A5870206800F5D87000EB35
:100690000110806800F47F00000C9870206800F55D
:1006A000D87000EB01108068000ED870206800F54B
:1006B000D87000E02FE000EB0110C06818712068CE
:1006C00000F5D87000EB0110C06800F47F40000A0C
:1006D0005871206800F5D87000EB0110C06800F474
:1006E0007F00000C9871206800F5D87000EB0110B5
:1006F000C068000ED87131B92068C06840F0200091
:100700002668F06005E02068006940F02000266857
:10071000306100205BE7606A40F480206062012065
:1007200055E70146002091F82020012A01D0022A35
:1007300011D10B689B6803F0806303B1401C0B6808
:100740009B6803F0006303B1401C0B689B6803F0D7
:10075000805303B1401C704770B504460CB90120AA
:1007600070BD94F8200010B9204600F0AFF8206862
:10077000006820F002002168086000F0AFFA05462A
:100780000DE000F0ABFA401B0A2808D9606A40F47B
:1007900000306062052084F820000120E0E7206836
:1007A000406800F002000028EBD12068006840F0AB
:1007B00001002168086000F091FA05460DE000F0A4
:1007C0008DFA401B0A2808D9606A40F40030606244
:1007D000052084F820000120C2E72068406800F06E
:1007E00001000028EBD0207E012806D12068006897
:1007F00040F080002168086005E02068006820F073
:10080000800021680860607E012806D120680068A9
:1008100040F040002168086005E02068006820F092
:10082000400021680860A07E012806D12068006889
:1008300040F020002168086005E02068006820F092
:10084000200021680860E07E012806D12068006849
:1008500020F010002168086005E02068006840F082
:10086000100021680860207F012806D120680068F8
:1008700040F008002168086005E02068006820F06A
:10088000080021680860607F012806D120680068A0
:1008900040F004002168086005E02068006820F04E
:1008A000040021680860D4E9020108432169084373
:1008B000616908436168491E08432168C8610020D6
:1008C0006062012084F82000002049E710B586B05E
:1008D00004462849206888424AD100BF00BF002052
:1008E00000902548006840F002002349086008464F
:1008F000006800F00200009000BF00BF00BF00BF12
:1009000000BF002000900846006840F00200086028
:100910000846006800F00200009000BF00BF00BF62
:1009200000BF0020009014481030006840F00070B4
:100930001149103108600846006800F0007000900E
:1009400000BF00BF481501900220029001200390D3
:10095000022004900920059001A9084800F0A8F899
:100960004FF48070019001A9044800F0A1F800BF85
:1009700006B010BD00640040303802400004024060
:1009800070B5044694F82000012822D1022084F892
:1009900020002068006820F001002168086000F055
:1009A0009DF905460DE000F099F9401B0A2808D989
:1009B000606A40F400306062052084F82000012065
:1009C00070BD2068406800F001000028EBD1606233
:1009D000F6E7606A40F4002060620120F0E770B53D
:1009E0000446A56D00F07AF9064694F83500022811
:1009F00008D08020606500BF002084F8340000BF6C
:100A0000012070BD2068006820F016002168086091
:100A10002068406920F0800021684861206C08B996
:100A2000A06C28B12068006820F0080021680860E8
:100A30002068006820F00100216808600FE000F0E5
:100A40004DF9801B05280AD92020606500BF0020D1
:100A500084F8340000BF032084F83500D1E7206813
:100A6000006800F001000028E9D194F85C103F20F4
:100A70008840A86000BF002084F8340000BF012037
:100A800084F835000020BCE7014691F835000228C3
:100A900003D08020486501207047052081F835008B
:100AA0000868006820F001000A6810600020F3E781
:100AB000F8B502460B460025002400200021DEE0A8
:100AC000012606FA01F51E6806EA0504AC4275D156
:100AD0001E7906F00306012E04D01E7906F00306E7
:100AE000022E13D190684F000326BE40B0434F0042
:100AF000DE68BE4030439060506801268E40B043AF
:100B00001E79C6F300168E40304350601E7906F001
:100B10000306032E09D0D0684F000326BE40B04321
:100B20004F009E68BE403043D0601E7906F0030639
:100B3000022E13D1CF0802F1200656F827004E07E7
:100B4000F70E0F26BE40B0434F07FF0E1E69BE4092
:100B50003043CF0802F1200646F8270010684F0006
:100B60000326BE40B0431E7906F003064F00BE4088
:100B7000304310605E6806F08056B6F1805F7DD12C
:100B800000BF00260096404E366846F480463E4F31
:100B90003E603E46366806F48046009600BF00BFC1
:100BA0003A4E8F0856F827008E07370F0F26BE40A3
:100BB000B043374EB24202D1002624E05EE0354E0B
:100BC000B24201D101261EE0334EB24201D10226CB
:100BD00019E0324EB24201D1032614E0304EB24247
:100BE00001D104260FE02F4EB24201D105260AE0C2
:100BF0002D4EB24201D1062605E02C4EB24201D163
:100C0000072600E008268F073F0FBE4030431F4EE7
:100C10008F0846F82700264E3068A0435E6806F429
:100C20008036B6F5803F00D12043214E3060361D1E
:100C30003068A0435E6806F40036B6F5003F00D188
:100C400020431B4E361D3060361D3068A0435E6861
:100C500006F48016B6F5801F00D12043144E0836E6
:100C60003060361D3068A0435E6806F40016B6F5A5
:100C7000001F00D120430E4E0C363060491C102955
:100C8000FFF41EAFF8BD00004438024008380140B0
:100C9000000002400004024000080240000C024034
:100CA000001002400014024000180240001C0240E4
:100CB000003C0140024613690B400BB1012000E0EB
:100CC000002070470AB1816101E00B048361704725
:100CD00001480068000C7047002004E001480068EB
:100CE000704700004000002070B504460CB9012098
:100CF00070BD4CF6CC402168086045F25550216823
:100D00000860D4E9001048602168A0688860FFF797
:100D1000E5FF05460BE0FFF7E1FF401B302806D951
:100D20002068C06800F0030008B10320E0E72068F5
:100D3000C06800F003000028EDD14AF6AA2021681F
:100D400008600020D4E701464AF6AA200A6810602D
:100D500000207047034800680349097808440149A6
:100D600008607047400000204800002010B50A4885
:100D7000006840F40070084908600846006840F4C4
:100D800080600860032000F07FF80F2000F006F874
:100D900000F02AF8002010BD003C024070B5044667
:100DA0000E4800784FF47A71B1FBF0F00C490968F5
:100DB000B1FBF0F5284600F009FC08B1012070BD38
:100DC000102C07D200222146501E00F01EF80548C4
:100DD000046001E00120F2E70020F0E74800002075
:100DE000000000204400002070470146084600280B
:100DF00009DB00F01F0301229A4043099B0003F125
:100E0000E023C3F8002100BF70472DE9F05F804662
:100E10000D461646002701F0B5FF074639462A461B
:100E2000334601F00700C0F1070ABAF1040F02D9F6
:100E30004FF0040A01E0C0F1070AD14600F1040AAC
:100E4000BAF1070F02D24FF0000A01E0A0F1030A45
:100E5000D4464FF0010A0AFA09FAAAF1010A0AEA8D
:100E6000020A0AFA0CFA4FF0010B0BFA0CFBABF179
:100E7000010B0BEA030B4AEA0B042146404601F042
:100E800089FFBDE8F09F000000BF00F00702064B9D
:100E900019684FF6FF031940044B0B4343EA022144
:100EA000014B196000BF70470CED00E00000FA052F
:100EB00070B504460D460CB9012070BD5848006855
:100EC00000F00700A84209D255490D700846006895
:100ED00000F00700A84201D00120EEE7207800F0E2
:100EE000020002281DD1207800F00400042805D15A
:100EF0004C48006840F4E0504A490860207800F00F
:100F00000800082805D14748006840F4604045497A
:100F100008604448006820F0F000A1680843414997
:100F20000860207800F00100A8B36068012807D1AC
:100F30003C4808380068C0F34040B8B90120BCE71D
:100F40006068022802D06068032807D13548083855
:100F50000068C0F3406048B90120AEE73148083866
:100F60000068C0F3400008B90120A6E72D480068DA
:100F700020F00300616808432A490860FFF7AEFECD
:100F8000064609E0FFF7AAFE801B41F2883188423D
:100F900002D9032091E707E02248006800F00C0026
:100FA0006168B0EB810FEDD11D48006800F00700CB
:100FB000A84209D91A490D700846006800F00700D8
:100FC000A84201D0012078E7207800F0040004282E
:100FD00007D11448006820F4E050E1680843114943
:100FE0000860207800F00800082808D10D48006843
:100FF00020F46040216940EAC1000A49086000F01D
:101000003FF808490968C1F30311074A515CC84019
:101010000649086006480068FFF7C0FE00204CE75C
:10102000003C0240083802402C3300080000002039
:1010300044000020014800687047000000000020C4
:1010400000B5FFF7F7FF04490968C1F38221034A9D
:10105000515CC84000BD0000083802403C33000825
:1010600000B5FFF7E7FF04490968C1F34231034ABD
:10107000515CC84000BD0000083802403C33000805
:101080002DE9F047002400250026A14625480068E8
:1010900000F00C0020B1042805D008283AD105E062
:1010A000DFF8849039E0DFF8849036E01D48001FB7
:1010B000006800F03F041B48001F006800F4800037
:1010C00078B11A481749091F0968C1F38811A0FBB4
:1010D00001700146224600233846FFF771F80546A5
:1010E0000EE011480F49091F0968C1F38811A0FBE0
:1010F00001700146224600233846FFF761F8054695
:101100000848001F0068C0F30140401C4600B5FBC2
:10111000F6F902E0DFF8109000BF00BF4846BDE8D6
:10112000F0870000083802400024F40000127A0022
:10113000F8B504460CB90120F8BD207800F0010094
:10114000002874D0F948006800F00C0004280DD085
:10115000F648006800F00C00082813D1F348001F7F
:10116000006800F48000B0F5800F0BD1EF4808381C
:101170000068C0F34040002859D06068002856D16C
:101180000120D9E700BF6068B0F5803F08D1E7488B
:101190000838006840F48030E449083908601EE0EF
:1011A0006068B0F5A02F0DD1E0480838006840F421
:1011B0008020DE49083908600846006840F4803025
:1011C00008600CE0D9480838006820F48030D7491E
:1011D000083908600846006820F48020086000BFD5
:1011E000606890B1FFF77AFD054606E0FFF776FDEF
:1011F000401B642801D903209EE7CC4808380068CA
:10120000C0F340400028F1D011E0FFF767FD05462C
:1012100006E0FFF763FD401B642801D903208BE73C
:10122000C24808380068C0F340400028F1D1207857
:1012300000F0020002285FD1BC48006800F00C00FA
:1012400058B1BA48006800F00C0008281CD1B74813
:10125000001F006800F48000B0B9B4480838006886
:10126000C0F3400020B1E068012801D0012063E70D
:10127000AE480838006820F0F800216940EAC10053
:10128000AA490839086037E0E06800B30120A8499E
:101290000860FFF723FD054606E0FFF71FFD401B32
:1012A000022801D9032047E7A04808380068C0F3A6
:1012B00040000028F1D09D480838006820F0F80070
:1012C000216940EAC10099490839086014E000200A
:1012D00097490860FFF702FD054606E0FFF7FEFCB0
:1012E000401B022801D9032026E7904808380068EF
:1012F000C0F340000028F1D1207800F00800082851
:101300002CD16069A8B101208A490860FFF7E6FC8A
:10131000054606E0FFF7E2FC401B022801D9032046
:101320000AE782486C300068C0F340000028F1D022
:1013300014E000207F490860FFF7D0FC054606E076
:10134000FFF7CCFC401B022801D90320F4E67748C4
:101350006C300068C0F340000028F1D1207800F024
:101360000400042870D1002770483830006800F06D
:10137000805090B900BF002000906C483830006861
:1013800040F080506949383108600846006800F034
:101390008050009000BF00BF01276748006800F43C
:1013A0008070B0B96448006840F480706249086099
:1013B000FFF794FC054606E0FFF790FC401B02286F
:1013C00001D90320B8E65C48006800F4807000286A
:1013D000F2D000BFA068012808D1544868300068E6
:1013E00040F001005149683108601DE0A0680528FF
:1013F0000DD14E486830006840F004004B49683118
:1014000008600846006840F0010008600CE04748AA
:101410006830006820F001004449683108600846DF
:10142000006820F00400086000BFA068A8B1FFF7C2
:1014300055FC054609E0FFF751FC401B41F288319D
:10144000884202D9032077E626E0384868300068F1
:10145000C0F340000028EED013E0FFF73FFC054644
:1014600008E0FFF73BFC401B41F28831884201D97C
:10147000032061E62D4868300068C0F34000002872
:10148000EFD1012F07D129483830006820F0805073
:1014900026493831086000BFA069002845D023489C
:1014A000006800F00C0008285DD0A069022845D132
:1014B00000201F490866FFF711FC054606E0FFF70C
:1014C0000DFC401B022801D9032035E617480838D7
:1014D0000068C0F340600028F1D1D4E90701084357
:1014E000616A40EA81110122A06AC2EB500041EA20
:1014F00000412C20005D41EA00600C49091F086092
:1015000001200B490866FFF7E9FB054606E0FFF7F7
:10151000E5FB401B022801D903200DE603480838EB
:101520000068C0F340600028F1D049E0083802406C
:1015300000004742800E47420070004000202149D1
:101540000866FFF7CBFB054606E0FFF7C7FB401B2D
:10155000022801D90320EFE51B480068C0F3406072
:101560000028F2D12CE0A069012800D1E4E516485A
:10157000001D0668A069012820D006F48001E069FA
:1015800081421BD106F03F01206A814216D147F605
:10159000C0703040616AB0EB811F0FD106F440315A
:1015A0000122A06AC2EB5000B1EB004F06D106F059
:1015B00070612C20005DB1EB006F01D00120BBE514
:1015C0000020B9E5000047420038024070B50446EB
:1015D0002546681EB0F1807F01D301200FE0681E10
:1015E0004FF0E02148610F214FF0FF3001F0D2FBB6
:1015F00000204FF0E021886107200861002070BDC5
:101600007047704710B504460CB9012010BD94F81E
:101610003D0028B9002084F83C00204600F026F860
:10162000022084F83D00211D206801F02FF90120DF
:1016300084F8460000BF84F83E0001213F20015598
:10164000402001554120015500BF00BF012084F812
:10165000420043200155442001554520015500BF5B
:10166000012084F83D000020D0E7000038B5044692
:101670000F492068884219D100BF00BF00200090A8
:101680000C48006840F010000A49086008460068ED
:1016900000F01000009000BF00BF00BF0122114603
:1016A0003620FFF7B2FB3620FFF79FFB38BD000066
:1016B0000010004040380240014691F83D000128EA
:1016C00001D001207047022081F83D000868C06801
:1016D00040F001000B68D8601A4B086898421BD094
:1016E0000868B0F1804F17D0174B0868984213D0A4
:1016F000164B086898420FD0154B086898420BD0DB
:10170000144B0868984207D0134B0868984203D0DE
:10171000124B086898420CD10868806800F00702F4
:10172000062A0CD00868006840F001000B681860B9
:1017300005E00868006840F001000B6818600020B0
:10174000C0E7000000000140000400400008004025
:10175000000C00400004014000400140001800401F
:10176000704710B5044620680069C0F34000D8B146
:101770002068C068C0F34000B0B16FF0020021687B
:101780000861012020772068806900F0030018B10B
:101790002046FFF7E5FF05E0204600F0ADF82046C3
:1017A00000F0ABF80020207720680069C0F38000CB
:1017B000D8B12068C068C0F38000B0B16FF00400F9
:1017C00021680861022020772068806900F4407059
:1017D00018B12046FFF7C4FF05E0204600F08CF862
:1017E000204600F08AF80020207720680069C0F3C6
:1017F000C000D8B12068C068C0F3C000B0B16FF0BD
:10180000080021680861042020772068C06900F082
:10181000030018B12046FFF7A3FF05E0204600F0C3
:101820006BF8204600F069F80020207720680069F6
:10183000C0F30010D8B12068C068C0F30010B0B188
:101840006FF0100021680861082020772068C069C7
:1018500000F4407018B12046FFF782FF05E02046F3
:1018600000F04AF8204600F048F800202077206871
:10187000006900F0010058B12068C06800F0010064
:1018800030B16FF0010021680861204600F036F8A1
:1018900020680069C0F3C01058B12068C068C0F368
:1018A000C01030B16FF08000216808612046FFF75A
:1018B000A7FE20680069C0F3801058B12068C06896
:1018C000C0F3801030B16FF04000216808612046FD
:1018D00000F020F820680069C0F3401058B120687B
:1018E000C068C0F3401030B16FF02000216808617B
:1018F0002046FFF786FE10BD7047704710B50446BE
:1019000003492068884201D100F046FF10BD000065
:101910000010004070477047704700002DE9F84FF5
:101920000446206805682068C668206847694FF04B
:101930000009CA4605F00F09B9F1000F0AD105F0F8
:10194000200038B106F0200020B1204601F03FF819
:10195000BDE8F88FB9F1000F72D007F0010018B997
:1019600006F4907000286BD005F0010030B106F449
:10197000807018B1206C40F00100206405F0040074
:1019800030B107F0010018B1206C40F00200206473
:1019900005F0020030B107F0010018B1206C40F0F2
:1019A0000400206405F0080048B106F0200010B9DA
:1019B00007F0010018B1206C40F008002064206C92
:1019C00070B305F0200028B106F0200010B12046C9
:1019D00000F0FDFF20684069C0F3801A206C00F021
:1019E000080010B9BAF1000F23D0204600F0C4FF60
:1019F0002068406900F04000402816D12068406906
:101A000020F0400021684861A06B50B15648A16B9E
:101A10000865A06BFFF738F810B1A06B016D88471F
:101A20000CE02046FFF778FF08E02046FFF774FF40
:101A300004E02046FFF770FF0020206488E7FFE7FE
:101A4000206B012879D105F01000002875D006F030
:101A50001000002871D000BF0020009020680068AE
:101A6000009020684068009000BF00BF2068406977
:101A700000F04000402839D1A06B006840681FFA90
:101A800080F8B8F1000F30D0A08D40452DDDA4F8CE
:101A90002E80A06BC069B0F5807F1FD02068C06821
:101AA00020F480702168C8602068406920F001003F
:101AB000216848612068406920F040002168486141
:101AC000202084F83E00002020632068C06820F0B9
:101AD00010002168C860A06BFEF781FFA08DE28D29
:101AE000801A81B22046FFF716FF31E7A08DE18D05
:101AF000401A1FFA80F8E08DE8B1B8F1000F1AD053
:101B00002068C06820F490702168C860206840692F
:101B100020F0010021684861202084F83E00002068
:101B200020632068C06820F010002168C86041462A
:101B30002046FFF7F0FE0BE7FFE705F0800030B12D
:101B400006F0800018B1204601F0D9F800E705F052
:101B5000400030B106F0400018B1204600F027FFE9
:101B6000F6E600BFF4E600006529000810B504465B
:101B70000CB9012010BDA06900B100E000BF94F8CD
:101B80003D0028B9002084F83C00204600F028F8E9
:101B9000242084F83D002068C06820F400502168AB
:101BA000C860204600F072FF2068006920F4904071
:101BB000216808612068406920F02A002168486196
:101BC0002068C06840F400502168C860002020648C
:101BD000202084F83D0084F83E000020CAE7000081
:101BE00010B586B004462D492068884254D100BF04
:101BF00000BF002000902A48006840F010002849EB
:101C000008600846006800F01000009000BF00BFA8
:101C100000BF00BF00BF00200090214814380068BA
:101C200040F002001E49143908600846006800F0C0
:101C30000200009000BF00BF00BF00BF00BF002037
:101C400000900846006840F00200086008460068FE
:101C500000F00200009000BF00BF00BF40200190D4
:101C6000022002900120039002200490072005909A
:101C700001A90C48FEF71CFF802001900720059069
:101C800001A90848FEF714FF2520FFF7AEF803224C
:101C900011462520FFF7B9F806B010BD001001402D
:101CA000443802400004024070B504460D46164612
:101CB00094F83E00202816D105B10EB9012070BD60
:101CC00000BF94F83C00012801D10220F7E7012071
:101CD00084F83C0000BF002020633246294620469D
:101CE00000F0EAFFEBE70220E9E7000010B5044648
:101CF0002049206888423BD11F48008800F40040FA
:101D000088BB1D48008800F4804070B11B480078F3
:101D10000A2803D000201849088024E016480088CB
:101D200040F40040144908801DE0144800780D2854
:101D300006D11148008840F480400F49088012E025
:101D40000E4800780C490988C1F30D010C4A505423
:101D500009480088401C0849088008460088C728B0
:101D600001DD00200880012204490648FFF79CFF9E
:101D700010BD0000001001400C0000200E000020EB
:101D80004C00002014010020704700BFFEE7000057
:101D900008B5FEF7EBFF0723022208214FF4A870D5
:101DA00001F03AFAA82001F0DBF84FF4E13001F03D
:101DB000A1FA00F0FDFA01F02DF942F2CF0109205D
:101DC00001F01CF84FF4FA71042001F013F900201F
:101DD00006231A044FF4A001009001F025F86820B2
:101DE0000149087008BD00002D00002010B5012138
:101DF0005A48FEF75FFF60B90A2001F0B7F80121E9
:101E00005648FEF757FF002802D101205449487078
:101E1000A0E002215348FEF74DFF60B90A2001F00F
:101E2000A5F802214F48FEF745FF0028F0D1022017
:101E30004B4948708EE001214B48FEF73BFF60B9EB
:101E40000A2001F093F801214748FEF733FF0028EC
:101E5000DED10320424948707CE002214248FEF76F
:101E600029FF60B90A2001F081F802213E48FEF7FF
:101E700021FF00286ED10420394948706AE0012111
:101E80003A48FEF717FF60B90A2001F06FF8012108
:101E90003648FEF70FFF00285CD105203049487016
:101EA00058E002213148FEF705FF60B90A2001F031
:101EB0005DF802212D48FEF7FDFE00284AD10620DC
:101EC0002749487046E080212448FEF7F3FE58B9C0
:101ED0000A2001F04BF880212048FEF7EBFE20BBE2
:101EE00007201F49487035E040211C48FEF7E2FEFC
:101EF00058B90A2001F03AF840211848FEF7DAFEF6
:101F000098B908201649487024E010211748FEF7B8
:101F1000D1FE58B90A2001F029F810211348FEF724
:101F2000C9FE10B909200E49487013E020210F485E
:101F3000FEF7C0FE58B90A2001F018F820210B481E
:101F4000FEF7B8FE30B90A200549487002E00020CB
:101F50000349487000F00CF810BD0000000002407A
:101F60002D00002000040240000C02400008024046
:101F700010B502220349012000F0C2FF0249087097
:101F800010BD00002D0000200F00002010B500F053
:101F900003FAFA48007800287ED0F9480078012832
:101FA0007AD1F7484078A8B900BF00224FF4004129
:101FB000F448FEF787FE00BF00BF01229103F148FD
:101FC000FEF780FE00BF00BF01225103ED48FEF77F
:101FD00079FE48E0EA484078012815D100BF012287
:101FE000C103E848FEF76EFE00BF00BF0122910367
:101FF000E448FEF767FE00BF00BF00224FF4005127
:10200000E048FEF75FFE2EE0DD484078022815D15B
:1020100000BF01228103DB48FEF754FE00BF00BF72
:1020200000224FF48041D748FEF74CFE00BF00BFAE
:1020300001225103D348FEF745FE14E000BF012200
:10204000D103D048FEF73EFE00BF00BF012291033E
:10205000CC48FEF737FE00BF00BF01225103C9483C
:10206000FEF730FE00BFC6488078B0B900BF00223E
:102070004FF48041C448FEF725FE00BF00BF012297
:102080005103C148FEF71EFE00BF00BF012211032D
:10209000BD48FEF717FE49E06EE1B9488078012897
:1020A00015D100BF01228103B748FEF70BFE00BF28
:1020B00000BF01225103B448FEF704FE00BF00BF79
:1020C00000224FF48051B048FEF7FCFD2EE0AC48F2
:1020D0008078022815D100BF01224103AA48FEF7EB
:1020E000F1FD00BF00BF00224FF40051A648FEF7EB
:1020F000E9FD00BF00BF01221103A348FEF7E2FD86
:1021000014E000BF012291039F48FEF7DBFD00BFF2
:1021100000BF012251039C48FEF7D4FD00BF00BF61
:10212000012211039848FEF7CDFD00BF9448C07806
:10213000A8B900BF00224FF400619448FEF7C2FD29
:1021400000BF00BF012211039048FEF7BBFD00BF96
:1021500000BF012291028D48FEF7B4FD48E0884897
:10216000C078012815D100BF0122C1028748FEF7BF
:10217000A9FD00BF00BF012211038448FEF7A2FDA4
:1021800000BF00BF00224FF480618048FEF79AFD37
:102190002EE07B48C078022815D100BF01228102C1
:1021A0007A48FEF78FFD00BF00BF00224FF4805138
:1021B0007648FEF787FD00BF00BF012291027348F9
:1021C000FEF780FD14E000BF0122D1026F48FEF748
:1021D00079FD00BF00BF012211036C48FEF772FDBC
:1021E00000BF00BF012291026848FEF76BFD00BFEF
:1021F00063480079A8B900BF00224FF480516448B9
:10220000FEF760FD00BF00BF012251036048FEF7EA
:1022100059FD00BF00BF012291035D48FEF752FD4A
:1022200048E057480079012815D100BF0122010379
:102230005748FEF747FD00BF00BF01225103544835
:10224000FEF740FD00BF00BF00224FF48041504820
:10225000FEF738FD2EE04A480079022815D100BF6C
:102260000122C1024A48FEF72DFD00BF00BF002237
:102270004FF400514648FEF725FD00BF00BF012284
:1022800091034348FEF71EFD14E000BF0122110335
:102290003F48FEF717FD00BF00BF012251033C4835
:1022A000FEF710FD00BF00BF012291033848FEF782
:1022B00009FD00BF32484079A8B900BF00224FF4A1
:1022C00080713448FEF7FEFC00BF00BF01225102BE
:1022D0003048FEF7F7FC00BF00BF012211022B4877
:1022E000FEF7F0FC48E026484079012815D100BFF0
:1022F000012201022748FEF7E5FC00BF00BF0122D2
:1023000051022448FEF7DEFC00BF00BF00224FF45C
:1023100080711E48FEF7D6FC2EE01948407902284D
:1023200015D100BF0122C1011A48FEF7CBFC00BF46
:1023300000BF00224FF400711648FEF7C3FC00BF37
:1023400000BF012211021148FEF7BCFC14E000BFDF
:10235000012211020F48FEF7B5FC00BF00BF0122A9
:1023600051020C48FEF7AEFC00BF00BF0122110273
:102370000648FEF7A7FC00BF10BD000010000020BB
:10238000350000200010024000040240000002401E
:10239000000C02400008024010B50349012000F083
:1023A00089FD0249087010BD350000201000002092
:1023B00000B587B000BF00BF00200190EA48006868
:1023C00040F01000E84908600846006800F010007E
:1023D000019000BF00BF00BF00BF00BF0020019000
:1023E0000846006840F0100008600846006800F0E9
:1023F0001000019000BF00BF00BF00BF00BF002061
:1024000001900846006840F0100008600846006827
:1024100000F01000019000BF00BF00BF00BF00BF70
:10242000002001900846006840F00200086008465D
:10243000006800F00200019000BF00BF00BF00BFB5
:1024400000BF002001900846006840F002000860CC
:102450000846006800F00200019000BF00BF00BF06
:1024600000BF00BF002001900846006840F0020055
:1024700008600846006800F00200019000BF00BF3D
:1024800000BF00BF00BF002001900846006840F078
:10249000010008600846006800F00100019000BFDC
:1024A00000BF00BF00BF00BF0020019008460068C9
:1024B00040F0010008600846006800F0010001904B
:1024C00000BF00BF00BF00BF00BF00200190084652
:1024D000006840F0010008600846006800F0010054
:1024E000019000BF00BF00BF00BF00BF00200190EF
:1024F0000846006840F0080008600846006800F0E0
:102500000800019000BF00BF00BF00BF00BF002057
:1025100001900846006840F008000860084600681E
:1025200000F00800019000BF00BF00BF00BF00BF67
:10253000002001900846006840F008000860084646
:10254000006800F00800019000BF00BF00BF00BF9E
:1025500000BF002001900846006840F004000860B9
:102560000846006800F00400019000BF00BF00BFF3
:1025700000BF00BF002001900846006840F0040042
:1025800008600846006800F00400019000BF00BF2A
:1025900000BF00BF00BF002001900846006840F067
:1025A000010008600846006800F00100019000BFCB
:1025B00000BF00BF4FF40040029001200390049040
:1025C0000220059002A96948FEF772FA4FF4804094
:1025D000029002A96548FEF76BFA4FF40050029092
:1025E00002A96248FEF764FA4FF48040029002A903
:1025F0005F48FEF75DFA4FF40050029002A95C4874
:10260000FEF756FA4FF48050029002A95848FEF7A0
:102610004FFA4FF40060029002A95648FEF748FABC
:102620004FF48050029002A95248FEF741FA4FF44D
:102630008060029002A94F48FEF73AFA4FF48050AA
:10264000029002A94C48FEF733FA4FF40050029072
:1026500002A94948FEF72CFA4FF48040029002A9E3
:102660004548FEF725FA4FF48070029002A94348CE
:10267000FEF71EFA4FF40070029002A93F48FEF7E1
:1026800017FA4FF48070029002A93A48FEF710FA48
:1026900000BF0122D1033548FEF714FB00BF00BF85
:1026A000012291033148FEF70DFB00BF00BF01225C
:1026B00051032E48FEF706FB00BF00BF0122910325
:1026C0002B48FEF7FFFA00BF00BF01225103284844
:1026D000FEF7F8FA00BF00BF012211032448FEF7FD
:1026E000F1FA00BF00BF0122D1022248FEF7EAFA48
:1026F00000BF00BF012211031E48FEF7E3FA00BF2E
:1027000000BF012291021B48FEF7DCFA00BF00BFA8
:10271000012211031848FEF7D5FA00BF00BF0122BD
:1027200051031548FEF7CEFA00BF00BF0122910306
:102730001148FEF7C7FA00BF00BF012211020F487F
:10274000FEF7C0FA00BF00BF012251020B48FEF79E
:10275000B9FA00BF00BF012211020648FEF7B2FA23
:1027600000BF07B000BD000030380240001002403A
:102770000004024000000240000C02400008024039
:1027800010B5FFF703FC10BD00BFFEE710B5FFF763
:102790002DFB10BD70470000002025E000EB40013C
:1027A000144A02EB81010979E1B900EB400132F8EA
:1027B0002110491C89B200EB40020E4B23F8221075
:1027C00000EB400203EB8202528891420ADB0021B7
:1027D00000EB400223F82210012100EB400203EB42
:1027E00082021171411CC8B2034909788842D5DBC5
:1027F00070470000140000202C000020FFF7C8FAEA
:10280000002421E000F0EEFB10A000F0B3FA04EB8E
:102810004400104901EB8000007968B104EB4401E9
:102820000C4A02EB810188688047002004EB4401D8
:10283000084A02EB81010871601CC0B204460649D7
:102840000978884200DB0024DCE70000D2D1CEB951
:10285000B9B70A00140000202C0000207047704710
:1028600010B5FEF777FA10BD0348006840F4700019
:10287000014908607047000088ED00E010B502488B
:10288000FEF76FFF10BD00006401002010B5026864
:10289000294B98420ED0B0F1804F0BD0274B984275
:1028A00008D0274B984205D0264B984202D0264BA1
:1028B000984203D122F070024B681A431E4B984293
:1028C00020D0B0F1804F1DD01C4B98421AD01C4B29
:1028D000984217D01B4B984214D01B4B984211D0F2
:1028E0001A4B98420ED01A4B98420BD0194B984273
:1028F00008D0194B984205D0184B984202D0184B7B
:10290000984203D122F44072CB681A4322F080032C
:102910004C6943EA040202608B68C3620B688362FD
:10292000054B984202D0084B984201D10B690363D2
:102930000123436110BD000000000140000400407D
:1029400000080040000C004000040140004001402D
:10295000004401400048014000180040001C0040B5
:102960000020004070B50546AC6B0020E085E08497
:102970002046FEF7D1FF70BD0168C96821F490714F
:102980000268D1600168496921F001010268516162
:10299000016B012905D10168C96821F010010268A5
:1029A000D160202180F83E1000210163704710B5EE
:1029B00004462068C06820F040002168C8602020DC
:1029C00084F83D002046FFF7DFF9002010BD70B508
:1029D000044694F83E00222856D1A068B0F5805FE6
:1029E0000CD1206950B90025A66A20684068C0F360
:1029F00008003080A06A801CA06215E0A56A00264D
:102A0000A068B0F5805F03D0A06828B9206918B924
:102A100020684068287004E02068406800F07F006B
:102A20002870A06A401CA062E08D401E80B2E08544
:102A300040BB2068C06820F020002168C860206882
:102A4000C06820F480702168C8602068406920F068
:102A5000010021684861202084F83E00206B012895
:102A60000AD12068C06820F010002168C860A18DDC
:102A70002046FEF750FF02E02046FFF737F900201E
:102A8000206370BD0020FCE70220FAE72DE9F84F33
:102A900004462068006920F44050E168084321683A
:102AA00008612169A068084361690843E169084336
:102AB00000902068C06849F20C618843009908437F
:102AC0002168C8602068406920F44070A16908430B
:102AD0002168486176492068884203D0754920689A
:102AE000884203D1FEF7BCFA814602E0FEF7A8FA5D
:102AF0008146E069B0F5004F6CD102206168A0FB0F
:102B0000015003461920A9FB007001462A463846A9
:102B1000FDF756FB6421B0FBF1F04FEA001A0220EA
:102B20006168A0FB01510B461920A9FB00712A46E0
:102B30003846FDF745FB834602206168A0FB015043
:102B400003461920A9FB00712A463846FDF738FBD9
:102B50006421B0FBF1F000EBC00101EB0010ABEB26
:102B60008000322101EBC0006421B0FBF1F000F0E5
:102B7000F8000AEB400A02206168A0FB01500346FE
:102B80001920A9FB007001462A463846FDF718FBBC
:102B9000834602206168A0FB015003461920A9FB6F
:102BA00000712A463846FDF70BFB6421B0FBF1F0BB
:102BB00000EBC00101EB0010ABEB8000322101EB18
:102BC000C0006421B0FBF1F000F007005044216820
:102BD00088606AE004206168A0FB01500346192068
:102BE000A9FB007001462A463846FDF7E9FA8246FD
:102BF00004206168A0FB015003461920A9FB007066
:102C000001462A463846FDF7DBFA6421B0FBF1F0B5
:102C100000EBC00101EB0010AAEB8000322101EBB8
:102C200000106421B0FBF1F000F0F00A04206168AC
:102C3000A0FB017003461920A9FB00513A46284623
:102C4000FDF7BEFA6421B0FBF1F00AEB001A042094
:102C50006168A0FB01510B461920A9FB00712A46AF
:102C60003846FDF7ADFA834604206168A0FB0150A9
:102C700003461920A9FB007001462A463846FDF795
:102C80009FFA6421B0FBF1F000EBC00101EB0010F2
:102C9000ABEB8000322101EB00106421B0FBF1F0BE
:102CA00000F00F00504421688860BDE8F88F0000F4
:102CB000001001400014014010B5034699629A8546
:102CC000DA8500201864222083F83E0000BF00202F
:102CD00083F83C0000BF1868C06840F480701C682E
:102CE000E0601868406940F001001C686061186885
:102CF000C06840F020001C68E060002010BD014664
:102D000091F83D00212828D18868B0F5805F0BD16B
:102D1000086948B90A6A1088C0F308000B6858604F
:102D2000086A801C086205E00B6A581C0862187863
:102D30000B685860C88C401E80B2C88458B90868B7
:102D4000C06820F080000B68D8600868C06840F058
:102D500040000B68D860002070470220FCE70000AC
:102D600010B50248FEF7DAFD10BD00001401002086
:102D700000BFFEE7014A024900F02FB8C92F000842
:102D80000800002002480068C0F3022070470000DD
:102D90000CED00E010B5002804DB0A07130E054A0D
:102DA000135406E00A07140E034A00F00F031B1F1A
:102DB000D45410BD00E400E018ED00E002E008C8C3
:102DC000121F08C1002AFAD170477047002001E0A5
:102DD00001C1121F002AFBD170472DE9F0411646B0
:102DE0000F460446002503E03946B047641C6D1CBD
:102DF00020780028F8D12846BDE8F08170B5054656
:102E00000C46074807490860084644600021816075
:102E1000C560FEF7F7FB0348FEF74EFC70BD0000EF
:102E200000100040640100202DE9F0418AB0044602
:102E30000D4616461F46DDF840801C481C490860B8
:102E400008464760C0F80880C460066145610021FB
:102E50000176417681760121C176002101774177A3
:102E6000FDF77AFC18B101200AB0BDE8F08100201E
:102E7000059006900120079000200090019002909C
:102E800003900490012008900E200990694608489C
:102E9000FDF7E4FA08B10220E6E70548FDF770FD0A
:102EA00008B10320E0E70020DEE7000000640040F6
:102EB000AC01002070B504460D4600210E48FDF718
:102EC0005FFB08B9002070BD2B460C4A00210A4860
:102ED000FDF76AFB08B10020F5E708480068A0424A
:102EE00005D10648806810B90448C06808B10020C0
:102EF000E9E70248007CE6E7AC010020EC01002095
:102F0000F8B504460D4616460027012000901248E9
:102F100004604460002010498860C860084606616B
:102F20006B462A460D48FDF7EDF908B10120F8BDC2
:102F30000AE0781C87B2B7F5805F05DB0748009987
:102F4000FDF7B5F90120F2E70448FDF7EAFB032895
:102F5000EFD10020EBE70000D4010020AC010020FD
:102F600001490860704700000400002010B50446C5
:102F70004FF47A7104FB01F000F002F810BD00007C
:102F800070B5034600224FF0E02675690D4E366895
:102F900003FB06F44FF0E026B16910E04FF0E026A5
:102FA000B06988420BD0884202D20E1A324402E045
:102FB0002E1A0E4432440146A24200D300E0EDE74F
:102FC00000BF70BD0400002000BF054A126802F077
:102FD0004002002AF9D0C2B2014B5A60704700008B
:102FE0000010014010B50248FDF7ADFE10BD000015
:102FF0005801002070B504460D4604480449086095
:10300000084644608560FDF76FFE70BD00300040EB
:103010005801002000B587B000BF00BF002001901C
:103020007548006840F00100734908600846006870
:1030300000F00100019000BF00BF00BF00BF00BF53
:10304000002001900846006840F002000860084631
:10305000006800F00200019000BF00BF00BF00BF89
:1030600000BF002001900846006840F0080008609A
:103070000846006800F00800019000BF00BF00BFD4
:1030800000BF00BF002001900846006840F0080023
:1030900008600846006800F00800019000BF00BF0B
:1030A00000BF00BF00BF002001900846006840F04C
:1030B000040008600846006800F00400019000BFAA
:1030C00000BF00BF00BF00BF00200190084600689D
:1030D00040F0040008600846006800F00400019019
:1030E00000BF00BF00BF00BF00BF00200190084626
:1030F000006840F0010008600846006800F0010028
:10310000019000BF00BF00BF00BF00BF00200190C2
:103110000846006840F0010008600846006800F0BA
:103120000100019000BF00BF00BF00BF00BF002032
:1031300001900846006840F00400086008460068F6
:1031400000F00400019000BF00BF00BF00BF00BF3F
:10315000002001900846006840F00400086008461E
:10316000006800F00400019000BF00BF00BF012014
:10317000029000200390012004900220059002A9F3
:103180001E48FDF795FC0220029002A91C48FDF79D
:103190008FFC0120029002A91A48FDF789FC022049
:1031A000029002A91748FDF783FC0120029002A9B2
:1031B0001548FDF77DFC0220029002A91248FDF798
:1031C00077FC8020029002A90C48FDF771FC40209A
:1031D000029002A90948FDF76BFC1020029002A999
:1031E0000948FDF765FC2020029002A90648FDF77A
:1031F0005FFC07B000BD0000303802400000024014
:1032000000040240000C02400008024010B5FFF725
:10321000F5FA002010BD00002DE9F04192B0804683
:103220000C4615461E460027302106A8FDF700F87B
:10323000142101A8FCF7FCFF00BF002000902A48E1
:10324000006840F08050284908600846006800F097
:103250008050009000BF00BF00BF002000902348B6
:10326000006840F48040214908600846006800F486
:103270008040009000BF00BF01200690000407902E
:1032800002200C9041050D91CDF83C800E941095D4
:10329000119606A8FDF74CFF07461FB1012012B09A
:1032A000BDE8F0810F2001900220029000200390E1
:1032B0004FF4A05004904FF480500590052101A8D0
:1032C000FDF7F6FD07460FB10120E8E7FDF700FD29
:1032D00041F20101884205D10548006840F4807040
:1032E000034908600020DAE74038024000700040DF
:1032F000003C024010B5044609480A4908600846E7
:10330000446000218160C160016181610C214161E3
:10331000FEF72CFC012204490248FEF7C5FC10BD53
:1033200000100140140100200E00002000000000E9
:103330000000000001020304060708090000000065
:103340000102030464330008000000204C00000068
:10335000BC2D0008B03300084C000020BC05000064
:10336000CC2D00080024F400000000000000000044
:10337000000000000000000000000100000000004C
:103380008D270008000001000000000081270008D0
:10339000020000000000000000000000000000002B
:1033A000000000000000000010000000010000000C
:040000050800018965
:00000001FF
