:020000040800F2
:10000000400800209D010008ED250008391800086F
:1000100075200008A9020008992C000800000000C3
:10002000000000000000000000000000B7260008EB
:10003000AD02000800000000B5260008B92600083F
:10004000B7010008B7010008B7010008B7010008B0
:10005000B7010008B7010008B7010008B7010008A0
:10006000B7010008B7010008B7010008B701000890
:10007000B7010008B7010008B7010008B701000880
:10008000B7010008B7010008B7010008B701000870
:10009000B7010008B7010008B7010008B701000860
:1000A000B7010008B7010008B7010008B701000850
:1000B000B7010008B7010008B7010008B701000840
:1000C000B7010008B7010008B7010008B701000830
:1000D000B7010008252C0008B7010008B701000887
:1000E000B7010008B7010008B7010008B701000810
:1000F000B7010008B7010008B7010008B701000800
:10010000B7010008B7010008B7010008B7010008EF
:10011000B7010008B7010008D5260008B70100089C
:10012000B7010008B7010008B7010008B7010008CF
:10013000B7010008B7010008B7010008B7010008BF
:10014000B7010008B7010008B7010008B7010008AF
:10015000B7010008B7010008B7010008352C0008F6
:10016000B7010008B7010008B7010008B70100088F
:10017000B7010008B7010008B7010008000000003F
:10018000B7010008B7010008DFF80CD000F07AF8DA
:100190000048004705320008400800200648804714
:1001A00006480047FEE7FEE7FEE7FEE7FEE7FEE75C
:1001B000FEE7FEE7FEE7FEE7C1260008890100082A
:1001C0002DE9F05F0546002092469B46884606468C
:1001D000814640241BE0284641464746224600F01F
:1001E00041F853465A46C01A914110D31146184659
:1001F000224600F028F82D1A67EB01084F462246E8
:100200000120002100F01FF817EB00094E41201ECD
:10021000A4F10104DFDC484631462A464346BDE8E6
:10022000F09FD2B201E000F8012B491EFBD27047CB
:100230000022F6E710B513460A4604461946FFF7B2
:10024000F0FF204610BD202A04DB203A00FA02F11C
:10025000002070479140C2F1200320FA03F31943B4
:1002600090407047202A04DB203A21FA02F0002156
:10027000704721FA02F3D040C2F1200291400843B6
:1002800019467047064C074D06E0E06840F0010350
:1002900094E8070098471034AC42F6D3FFF778FF94
:1002A000783500089835000800BFFEE7704770B544
:1002B0000446A56D00F07AF9064694F83500022848
:1002C00008D08020606500BF002084F8340000BFA3
:1002D000012070BD2068006820F0160021680860C9
:1002E0002068406920F0800021684861206C08B9CE
:1002F000A06C28B12068006820F008002168086020
:100300002068006820F00100216808600FE000F01C
:100310004DF9801B05280AD92020606500BF002008
:1003200084F8340000BF032084F83500D1E720684A
:10033000006800F001000028E9D194F85C103F202B
:100340008840A86000BF002084F8340000BF01206E
:1003500084F835000020BCE7014691F835000228FA
:1003600003D08020486501207047052081F83500C2
:100370000868006820F001000A6810600020F3E7B8
:10038000F8B502460B460025002400200021DEE0DF
:10039000012606FA01F51E6806EA0504AC4275D18D
:1003A0001E7906F00306012E04D01E7906F003061E
:1003B000022E13D190684F000326BE40B0434F0079
:1003C000DE68BE4030439060506801268E40B043E6
:1003D0001E79C6F300168E40304350601E7906F039
:1003E0000306032E09D0D0684F000326BE40B04359
:1003F0004F009E68BE403043D0601E7906F0030671
:10040000022E13D1CF0802F1200656F827004E071E
:10041000F70E0F26BE40B0434F07FF0E1E69BE40C9
:100420003043CF0802F1200646F8270010684F003D
:100430000326BE40B0431E7906F003064F00BE40BF
:10044000304310605E6806F08056B6F1805F7DD163
:1004500000BF00260096404E366846F480463E4F68
:100460003E603E46366806F48046009600BF00BFF8
:100470003A4E8F0856F827008E07370F0F26BE40DA
:10048000B043374EB24202D1002624E05EE0354E42
:10049000B24201D101261EE0334EB24201D1022602
:1004A00019E0324EB24201D1032614E0304EB2427E
:1004B00001D104260FE02F4EB24201D105260AE0F9
:1004C0002D4EB24201D1062605E02C4EB24201D19A
:1004D000072600E008268F073F0FBE4030431F4E1F
:1004E0008F0846F82700264E3068A0435E6806F461
:1004F0008036B6F5803F00D12043214E3060361D56
:100500003068A0435E6806F40036B6F5003F00D1BF
:1005100020431B4E361D3060361D3068A0435E6898
:1005200006F48016B6F5801F00D12043144E08361D
:100530003060361D3068A0435E6806F40016B6F5DC
:10054000001F00D120430E4E0C363060491C10298C
:10055000FFF41EAFF8BD00004438024008380140E7
:10056000000002400004024000080240000C02406B
:10057000001002400014024000180240001C02401B
:10058000003C0140024613690B400BB1012000E022
:10059000002070470AB1816101E00B04836170475C
:1005A00001480068000C7047002004E00148006822
:1005B000704700002C00002070B504460CB90120E3
:1005C00070BD4CF6CC402168086045F2555021685A
:1005D0000860D4E9001048602168A0688860FFF7CF
:1005E000E5FF05460BE0FFF7E1FF401B302806D989
:1005F0002068C06800F0030008B10320E0E720682D
:10060000C06800F003000028EDD14AF6AA20216856
:1006100008600020D4E701464AF6AA200A68106064
:1006200000207047034800680349097808440149DD
:10063000086070472C0000203400002010B50A48E4
:10064000006840F40070084908600846006840F4FB
:1006500080600860032000F07FF80F2000F006F8AB
:1006600000F02AF8002010BD003C024070B504469E
:100670000E4800784FF47A71B1FBF0F00C4909682C
:10068000B1FBF0F5284600F009FC08B1012070BD6F
:10069000102C07D200222146501E00F01EF80548FB
:1006A000046001E00120F2E70020F0E734000020C0
:1006B0000000002030000020704701460846002856
:1006C00009DB00F01F0301229A4043099B0003F15C
:1006D000E023C3F8002100BF70472DE9F05F80469A
:1006E0000D461646002702F0E1FA074639462A462B
:1006F000334601F00700C0F1070ABAF1040F02D92E
:100700004FF0040A01E0C0F1070AD14600F1040AE3
:10071000BAF1070F02D24FF0000A01E0A0F1030A7C
:10072000D4464FF0010A0AFA09FAAAF1010A0AEAC4
:10073000020A0AFA0CFA4FF0010B0BFA0CFBABF1B0
:10074000010B0BEA030B4AEA0B042146404602F078
:10075000B5FABDE8F09F000000BF00F00702064BAD
:1007600019684FF6FF031940044B0B4343EA02217B
:10077000014B196000BF70470CED00E00000FA0566
:1007800070B504460D460CB9012070BD584800688C
:1007900000F00700A84209D255490D7008460068CC
:1007A00000F00700A84201D00120EEE7207800F019
:1007B000020002281DD1207800F00400042805D191
:1007C0004C48006840F4E0504A490860207800F046
:1007D0000800082805D14748006840F460404549B2
:1007E00008604448006820F0F000A16808434149CF
:1007F0000860207800F00100A8B36068012807D1E4
:100800003C4808380068C0F34040B8B90120BCE754
:100810006068022802D06068032807D1354808388C
:100820000068C0F3406048B90120AEE7314808389D
:100830000068C0F3400008B90120A6E72D48006811
:1008400020F00300616808432A490860FFF7AEFE04
:10085000064609E0FFF7AAFE801B41F28831884274
:1008600002D9032091E707E02248006800F00C005D
:100870006168B0EB810FEDD11D48006800F0070002
:10088000A84209D91A490D700846006800F007000F
:10089000A84201D0012078E7207800F00400042865
:1008A00007D11448006820F4E050E168084311497A
:1008B0000860207800F00800082808D10D4800687A
:1008C00020F46040216940EAC1000A49086000F054
:1008D0003FF808490968C1F30311074A515CC84051
:1008E0000649086006480068FFF7C0FE00204CE794
:1008F000003C02400838024060330008000000203D
:10090000300000200148006870470000000000200F
:1009100000B5FFF7F7FF04490968C1F38221034AD4
:10092000515CC84000BD0000083802407033000828
:1009300000B5FFF7E7FF04490968C1F34231034AF4
:10094000515CC84000BD0000083802407033000808
:100950002DE9F047002400250026A146254800681F
:1009600000F00C0020B1042805D008283AD105E099
:10097000DFF8849039E0DFF8849036E01D48001FEE
:10098000006800F03F041B48001F006800F480006E
:1009900078B11A481749091F0968C1F38811A0FBEB
:1009A00001700146224600233846FFF709FC054640
:1009B0000EE011480F49091F0968C1F38811A0FB17
:1009C00001700146224600233846FFF7F9FB054631
:1009D0000848001F0068C0F30140401C4600B5FBFA
:1009E000F6F902E0DFF8109000BF00BF4846BDE80E
:1009F000F0870000083802400024F40000127A005A
:100A0000F8B504460CB90120F8BD207800F00100CB
:100A1000002874D0F948006800F00C0004280DD0BC
:100A2000F648006800F00C00082813D1F348001FB6
:100A3000006800F48000B0F5800F0BD1EF48083853
:100A40000068C0F34040002859D06068002856D1A3
:100A50000120D9E700BF6068B0F5803F08D1E748C2
:100A60000838006840F48030E449083908601EE026
:100A70006068B0F5A02F0DD1E0480838006840F458
:100A80008020DE49083908600846006840F480305C
:100A900008600CE0D9480838006820F48030D74955
:100AA000083908600846006820F48020086000BF0C
:100AB000606890B1FFF77AFD054606E0FFF776FD26
:100AC000401B642801D903209EE7CC480838006801
:100AD000C0F340400028F1D011E0FFF767FD054664
:100AE00006E0FFF763FD401B642801D903208BE774
:100AF000C24808380068C0F340400028F1D120788F
:100B000000F0020002285FD1BC48006800F00C0031
:100B100058B1BA48006800F00C0008281CD1B7484A
:100B2000001F006800F48000B0B9B44808380068BD
:100B3000C0F3400020B1E068012801D0012063E744
:100B4000AE480838006820F0F800216940EAC1008A
:100B5000AA490839086037E0E06800B30120A849D5
:100B60000860FFF723FD054606E0FFF71FFD401B69
:100B7000022801D9032047E7A04808380068C0F3DD
:100B800040000028F1D09D480838006820F0F800A7
:100B9000216940EAC10099490839086014E0002041
:100BA00097490860FFF702FD054606E0FFF7FEFCE7
:100BB000401B022801D9032026E790480838006826
:100BC000C0F340000028F1D1207800F00800082888
:100BD0002CD16069A8B101208A490860FFF7E6FCC2
:100BE000054606E0FFF7E2FC401B022801D903207E
:100BF0000AE782486C300068C0F340000028F1D05A
:100C000014E000207F490860FFF7D0FC054606E0AD
:100C1000FFF7CCFC401B022801D90320F4E67748FB
:100C20006C300068C0F340000028F1D1207800F05B
:100C30000400042870D1002770483830006800F0A4
:100C4000805090B900BF002000906C483830006898
:100C500040F080506949383108600846006800F06B
:100C60008050009000BF00BF01276748006800F473
:100C70008070B0B96448006840F4807062490860D0
:100C8000FFF794FC054606E0FFF790FC401B0228A6
:100C900001D90320B8E65C48006800F480700028A1
:100CA000F2D000BFA068012808D15448683000681D
:100CB00040F001005149683108601DE0A068052836
:100CC0000DD14E486830006840F004004B4968314F
:100CD00008600846006840F0010008600CE04748E2
:100CE0006830006820F00100444968310860084617
:100CF000006820F00400086000BFA068A8B1FFF7FA
:100D000055FC054609E0FFF751FC401B41F28831D4
:100D1000884202D9032077E626E038486830006828
:100D2000C0F340000028EED013E0FFF73FFC05467B
:100D300008E0FFF73BFC401B41F28831884201D9B3
:100D4000032061E62D4868300068C0F340000028A9
:100D5000EFD1012F07D129483830006820F08050AA
:100D600026493831086000BFA069002845D02348D3
:100D7000006800F00C0008285DD0A069022845D169
:100D800000201F490866FFF711FC054606E0FFF743
:100D90000DFC401B022801D9032035E6174808380E
:100DA0000068C0F340600028F1D1D4E9070108438E
:100DB000616A40EA81110122A06AC2EB500041EA57
:100DC00000412C20005D41EA00600C49091F0860C9
:100DD00001200B490866FFF7E9FB054606E0FFF72F
:100DE000E5FB401B022801D903200DE60348083823
:100DF0000068C0F340600028F1D049E008380240A4
:100E000000004742800E4742007000400020214908
:100E10000866FFF7CBFB054606E0FFF7C7FB401B64
:100E2000022801D90320EFE51B480068C0F34060A9
:100E30000028F2D12CE0A069012800D1E4E5164891
:100E4000001D0668A069012820D006F48001E06931
:100E500081421BD106F03F01206A814216D147F63C
:100E6000C0703040616AB0EB811F0FD106F4403191
:100E70000122A06AC2EB5000B1EB004F06D106F090
:100E800070612C20005DB1EB006F01D00120BBE54B
:100E90000020B9E5000047420038024070B5044622
:100EA0002546681EB0F1807F01D301200FE0681E47
:100EB0004FF0E02148610F214FF0FF3001F0FEFEBE
:100EC00000204FF0E021886107200861002070BDFC
:100ED0007047704710B504460CB9012010BD94F856
:100EE0003D0028B9002084F83C00204600F026F898
:100EF000022084F83D00211D206801F0F3FB012051
:100F000084F8460000BF84F83E0001213F200155CF
:100F1000402001554120015500BF00BF012084F849
:100F2000420043200155442001554520015500BF92
:100F3000012084F83D000020D0E7000038B50446C9
:100F40000F492068884219D100BF00BF00200090DF
:100F50000C48006840F010000A4908600846006824
:100F600000F01000009000BF00BF00BF012211463A
:100F70003620FFF7B2FB3620FFF79FFB38BD00009D
:100F80000010004040380240014691F83D00012821
:100F900001D001207047022081F83D000868C06838
:100FA00040F001000B68D8601A4B086898421BD0CB
:100FB0000868B0F1804F17D0174B0868984213D0DB
:100FC000164B086898420FD0154B086898420BD012
:100FD000144B0868984207D0134B0868984203D016
:100FE000124B086898420CD10868806800F007022C
:100FF000062A0CD00868006840F001000B681860F1
:1010000005E00868006840F001000B6818600020E7
:10101000C0E700000000014000040040000800405C
:10102000000C004000040140004001400018004056
:10103000704710B5044620680069C0F34000D8B17D
:101040002068C068C0F34000B0B16FF002002168B2
:101050000861012020772068806900F0030018B142
:101060002046FFF7E5FF05E0204600F0ADF82046FA
:1010700000F0ABF80020207720680069C0F3800002
:10108000D8B12068C068C0F38000B0B16FF0040030
:1010900021680861022020772068806900F4407090
:1010A00018B12046FFF7C4FF05E0204600F08CF899
:1010B000204600F08AF80020207720680069C0F3FD
:1010C000C000D8B12068C068C0F3C000B0B16FF0F4
:1010D000080021680861042020772068C06900F0BA
:1010E000030018B12046FFF7A3FF05E0204600F0FB
:1010F0006BF8204600F069F800202077206800692E
:10110000C0F30010D8B12068C068C0F30010B0B1BF
:101110006FF0100021680861082020772068C069FE
:1011200000F4407018B12046FFF782FF05E020462A
:1011300000F04AF8204600F048F8002020772068A8
:10114000006900F0010058B12068C06800F001009B
:1011500030B16FF0010021680861204600F036F8D8
:1011600020680069C0F3C01058B12068C068C0F39F
:10117000C01030B16FF08000216808612046FFF791
:10118000A7FE20680069C0F3801058B12068C068CD
:10119000C0F3801030B16FF0400021680861204634
:1011A00000F038F820680069C0F3401058B120689A
:1011B000C068C0F3401030B16FF0200021680861B2
:1011C0002046FFF786FE10BD7047704710B50446F5
:1011D0000E492068884217D101F00AFA0C4890F8AD
:1011E000670088B10A4890F86500401C084981F8FA
:1011F0006500084690F86500082805DB002081F8A6
:101200006700012081F8680010BD00000010004058
:101210001803002070477047704700002DE9F84F11
:101220000446206805682068C668206847694FF052
:101230000009CA4605F00F09B9F1000F0AD105F0FF
:10124000200038B106F0200020B1204601F0EBFA72
:10125000BDE8F88FB9F1000F72D007F0010018B99E
:1012600006F4907000286BD005F0010030B106F450
:10127000807018B1206C40F00100206405F004007B
:1012800030B107F0010018B1206C40F0020020647A
:1012900005F0020030B107F0010018B1206C40F0F9
:1012A0000400206405F0080048B106F0200010B9E1
:1012B00007F0010018B1206C40F008002064206C99
:1012C00070B305F0200028B106F0200010B12046D0
:1012D00001F0A9FA20684069C0F3801A206C00F080
:1012E000080010B9BAF1000F23D0204601F070FABF
:1012F0002068406900F04000402816D1206840690D
:1013000020F0400021684861A06B50B15648A16BA5
:101310000865A06BFFF720F810B1A06B016D88473E
:101320000CE02046FFF778FF08E02046FFF774FF47
:1013300004E02046FFF770FF0020206488E7FFE705
:10134000206B012879D105F01000002875D006F037
:101350001000002871D000BF0020009020680068B5
:10136000009020684068009000BF00BF206840697E
:1013700000F04000402839D1A06B006840681FFA97
:1013800080F8B8F1000F30D0A08D40452DDDA4F8D5
:101390002E80A06BC069B0F5807F1FD02068C06828
:1013A00020F480702168C8602068406920F0010046
:1013B000216848612068406920F040002168486148
:1013C000202084F83E00002020632068C06820F0C0
:1013D00010002168C860A06BFEF769FFA08DE28D48
:1013E000801A81B22046FFF716FF31E7A08DE18D0C
:1013F000401A1FFA80F8E08DE8B1B8F1000F1AD05A
:101400002068C06820F490702168C8602068406936
:1014100020F0010021684861202084F83E0000206F
:1014200020632068C06820F010002168C860414631
:101430002046FFF7F0FE0BE7FFE705F0800030B134
:1014400006F0800018B1204601F085FB00E705F0AA
:10145000400030B106F0400018B1204601F0D3F949
:10146000F6E600BFF4E60000BD27000810B504460C
:101470000CB9012010BDA06900B100E000BF94F8D4
:101480003D0028B9002084F83C00204600F028F8F0
:10149000242084F83D002068C06820F400502168B2
:1014A000C860204601F01EFA2068006920F49040D0
:1014B000216808612068406920F02A00216848619D
:1014C0002068C06840F400502168C8600020206493
:1014D000202084F83D0084F83E000020CAE7000088
:1014E00010B586B004462D492068884254D100BF0B
:1014F00000BF002000902A48006840F010002849F2
:1015000008600846006800F01000009000BF00BFAF
:1015100000BF00BF00BF00200090214814380068C1
:1015200040F002001E49143908600846006800F0C7
:101530000200009000BF00BF00BF00BF00BF00203E
:1015400000900846006840F0020008600846006805
:1015500000F00200009000BF00BF00BF40200190DB
:1015600002200290012003900220049007200590A1
:1015700001A90C48FEF704FF802001900720059088
:1015800001A90848FEF7FCFE2520FFF796F8032284
:1015900011462520FFF7A1F806B010BD001001404C
:1015A00044380240000402402DE9F84F04460E463C
:1015B000174699464FF0000A94F83E0020285FD164
:1015C00006B117B90120BDE8F88F00BF94F83C00C0
:1015D000012801D10220F6E7012084F83C0000BF79
:1015E00000202064222084F83E0000202063FEF7C3
:1015F000DDFF8246A785E785A068B0F5805F04D14E
:10160000206910B90025B04602E035464FF00008C9
:1016100000BF002084F83C0000BF29E053460022B0
:1016200020212046CDF8009001F0C5FA08B1032032
:10163000C9E745B920684068C0F30800A8F8000071
:1016400008F1020811E0A068B0F5805F03D0A0683F
:1016500028B9206918B920684068287004E020681B
:10166000406800F07F0028706D1CE08D401EE08512
:10167000E08D0028D2D1202084F83E000020A2E78F
:101680000220A0E770B504460D46164694F83E00C9
:10169000202816D105B10EB9012070BD00BF94F805
:1016A0003C00012801D10220F7E7012084F83C002A
:1016B00000BF0020206332462946204601F028FA68
:1016C000EBE70220E9E7000010B504462049206856
:1016D00088423BD11F48008800F4004088BB1D4869
:1016E000008800F4804070B11B4800780A2803D0BD
:1016F00000201849088024E01648008840F4004083
:10170000144908801DE0144800780D2806D11148BE
:10171000008840F480400F49088012E00E480078AD
:101720000C490988C1F30D010C4A5054094800883E
:10173000401C0849088008460088C72801DD0020B1
:101740000880012204490648FFF79CFF10BD0000F5
:10175000001001400C0000200E0000203800002086
:10176000000100202DE9F84F04460E461746994621
:101770004FF0000A94F83D0020285AD106B117B95D
:101780000120BDE8F88F00BF94F83C00012801D18A
:101790000220F6E7012084F83C0000BF002020640E
:1017A000212084F83D00FEF701FF8246A784E784EC
:1017B000A068B0F5805F04D1206910B90025B0465B
:1017C00002E035464FF0000800BF002084F83C00DE
:1017D00000BF1BE05346002280212046CDF8009038
:1017E00001F0E9F908B10320CBE745B9B8F80000EA
:1017F000C0F308002168486008F1020803E0287877
:10180000216848606D1CE08C401EE084E08C00285C
:10181000E0D15346002240212046CDF8009001F04F
:10182000CAF908B10320ACE7202084F83D0000206D
:10183000A7E70220A5E7704700BFFEE710B5FEF757
:10184000FDFE0723022208214FF4A87001F0FEFCE0
:10185000A82001F07DFA4FF4E13001F065FD00F0C1
:1018600029FA01F0CFFA42F2CF01092001F05AFA29
:1018700000F0AEFE4FF4FA71042001F0B3FA8820B4
:101880000149088010BD00008801002010B501F05A
:10189000B5FB01F0E7FB01F0FFFB01F017FC01F0E5
:1018A0002FFC01F047FC01F05FFC01F077FC01F038
:1018B0008FFC01F0BDFB10BD10B5FA48B0F8220155
:1018C000012814D100BF00220221F748FEF762FE72
:1018D00000BF00BF01221146F348FEF75BFE00BFC8
:1018E00000BF01220421F148FEF754FE48E0ED4814
:1018F000B0F82201022814D100BF00220221EA48D8
:10190000FEF748FE00BF00BF00220121E648FEF7B7
:1019100041FE00BF00BF01220421E448FEF73AFE69
:101920002EE0E048B0F82201032814D100BF0122C4
:101930000221DD48FEF72EFE00BF00BF002201217C
:10194000D948FEF727FE00BF00BF01220421D74877
:10195000FEF720FE14E000BF01220221D248FEF76C
:1019600019FE00BF00BF01221146CF48FEF712FE4C
:1019700000BF00BF01220421CC48FEF70BFE00BFD0
:10198000C848B0F82401012814D100BF002210215A
:10199000C648FEF7FFFD00BF00BF01222021C3485B
:1019A000FEF7F8FD00BF00BF01224021BF48FEF74F
:1019B000F1FD48E0BB48B0F82401022814D100BF73
:1019C00000221021B948FEF7E5FD00BF00BF00224C
:1019D0002021B648FEF7DEFD00BF00BF01224021F6
:1019E000B248FEF7D7FD2EE0AE48B0F82401032838
:1019F00014D100BF01221021AC48FEF7CBFD00BF7F
:101A000000BF00222021A948FEF7C4FD00BF00BF8F
:101A100001224021A548FEF7BDFD14E000BF0122D0
:101A20001021A248FEF7B6FD00BF00BF0122202111
:101A30009E48FEF7AFFD00BF00BF012240219B483A
:101A4000FEF7A8FD00BF9748B0F82601012814D181
:101A500000BF0022C1029648FEF79CFD00BF00BFF8
:101A6000012211039248FEF795FD00BF00BF01223D
:101A700091028F48FEF78EFD4AE08A48B0F82601B1
:101A8000022815D100BF002281028948FEF782FD9D
:101A900000BF00BF00224FF480518548FEF77AFD59
:101AA00000BF00BF012291028148FEF773FD2FE0C5
:101AB0007C48B0F82601032815D100BF0122D102CD
:101AC0007B48FEF767FD00BF00BF00224FF4805146
:101AD0007748FEF75FFD00BF00BF01229102744806
:101AE000FEF758FD14E000BF0122D1027048FEF756
:101AF00051FD00BF00BF012211036D48FEF74AFDF2
:101B000000BF00BF012291026948FEF743FD00BFFC
:101B10006448B0F82801012814D100BF0022010355
:101B20006248FEF737FD00BF00BF012251035F4846
:101B3000FEF730FD00BF00BF012291035B48FEF7B6
:101B400029FD4AE05748B0F82801022815D100BF06
:101B50000022C1025548FEF71DFD00BF00BF002254
:101B60004FF400515148FEF715FD00BF00BF0122A0
:101B700091034E48FEF70EFD2FE04A48B0F82801C9
:101B8000032815D100BF012211034848FEF702FDCA
:101B900000BF00BF00224FF400514448FEF7FAFC9A
:101BA00000BF00BF012291034048FEF7F3FC14E0A0
:101BB00000BF012211033D48FEF7ECFC00BF00BF4F
:101BC000012251033948FEF7E5FC00BF00BF0122A6
:101BD00091033648FEF7DEFC00BF3248B0F82A0118
:101BE000012814D100BF002202213148FEF7D2FCA7
:101BF00000BF00BF012204212D48FEF7CBFC00BF2F
:101C000000BF012208212A48FEF7C4FC48E025480D
:101C1000B0F82A01022814D100BF00220221244872
:101C2000FEF7B8FC00BF00BF002204212048FEF7E9
:101C3000B1FC00BF00BF012208211D48FEF7AAFC2D
:101C40002EE01848B0F82A01032814D100BF012261
:101C500002211748FEF79EFC00BF00BF00220421AE
:101C60001348FEF797FC00BF00BF0122082110486F
:101C7000FEF790FC14E000BF012202210C48FEF7A1
:101C800089FC00BF00BF012204210948FEF782FC45
:101C900000BF00BF012208210548FEF77BFC00BF02
:101CA00010BD00008801002000100240000C02401E
:101CB0000000024000B587B000BF00BF00200190C7
:101CC000E548006840F01000E349086008460068F5
:101CD00000F01000019000BF00BF00BF00BF00BFB8
:101CE000002001900846006840F010000860084697
:101CF000006800F01000019000BF00BF00BF00BFEF
:101D000000BF002001900846006840F0080008600D
:101D10000846006800F00800019000BF00BF00BF47
:101D200000BF00BF002001900846006840F0080096
:101D300008600846006800F00800019000BF00BF7E
:101D400000BF00BF00BF002001900846006840F0BF
:101D5000080008600846006800F00800019000BF15
:101D600000BF00BF00BF00BF002001900846006810
:101D700040F0080008600846006800F00800019084
:101D800000BF00BF00BF00BF00BF00200190084699
:101D9000006840F0010008600846006800F001009B
:101DA000019000BF00BF00BF00BF00BF0020019036
:101DB0000846006840F0010008600846006800F02E
:101DC0000100019000BF00BF00BF00BF00BF0020A6
:101DD00001900846006840F001000860084600686D
:101DE00000F00100019000BF00BF00BF00BF00BFB6
:101DF000002001900846006840F00800086008468E
:101E0000006800F00800019000BF00BF00BF00BFE5
:101E100000BF002001900846006840F008000860FC
:101E20000846006800F00800019000BF00BF00BF36
:101E300000BF00BF002001900846006840F0080085
:101E400008600846006800F00800019000BF00BF6D
:101E500000BF00BF00BF002001900846006840F0AE
:101E6000010008600846006800F00100019000BF12
:101E700000BF00BF00BF00BF0020019008460068FF
:101E800040F0010008600846006800F00100019081
:101E900000BF00BF00BF00BF00BF00200190084688
:101EA000006840F0010008600846006800F001008A
:101EB000019000BF00BF00BF0220029001200390EC
:101EC00004900220059002A96448FEF759FA012007
:101ED000029002A96148FEF753FA0420029002A979
:101EE0005F48FEF74DFA1020029002A95C48FEF709
:101EF00047FA2020029002A95948FEF741FA4020F3
:101F0000029002A95648FEF73BFA4FF40060029097
:101F100002A95448FEF734FA4FF48050029002A907
:101F20005048FEF72DFA4FF48060029002A94D4808
:101F3000FEF726FA4FF48050029002A94848FEF7B7
:101F40001FFA4FF40050029002A94548FEF718FA14
:101F50004FF48040029002A94148FEF711FA022096
:101F6000029002A93F48FEF70BFA0420029002A952
:101F70003C48FEF705FA0820029002A93948FEF70E
:101F8000FFF900BF012202213448FEF703FB00BF26
:101F900000BF012211463148FEF7FCFA00BF00BF26
:101FA000012204212E48FEF7F5FA00BF00BF0122EE
:101FB00010212B48FEF7EEFA00BF00BF01222021BE
:101FC0002748FEF7E7FA00BF00BF0122402124485E
:101FD000FEF7E0FA00BF00BF0122D1022148FEF760
:101FE000D9FA00BF00BF012211031E48FEF7D2FA42
:101FF00000BF00BF012291021A48FEF7CBFA00BFD2
:1020000000BF012211031648FEF7C4FA00BF00BF4B
:10201000012251031248FEF7BDFA00BF00BF0122A2
:1020200091030F48FEF7B6FA00BF00BF012202215C
:102030000C48FEF7AFFA00BF00BF01220421094897
:10204000FEF7A8FA00BF00BF012208210548FEF7ED
:10205000A1FA00BF07B000BD3038024000100240B6
:10206000000C02400000024010B5FFF70FFCFFF724
:1020700023FC10BD00BFFEE710B500F0C1F810BD95
:1020800010B586B0044600BF00BF002000904A484B
:10209000006840F00400484908600846006800F005
:1020A0000400009000BF00BF00BF00BF00BF0020C1
:1020B00000900846006840F0040008600846006888
:1020C00000F00400009000BF00BF00BF00BF00BFD1
:1020D000002000900846006840F0040008600846B0
:1020E000006800F00400009000BF00BF00BF00BF08
:1020F00000BF0020009030481430006840F02000FD
:102100002D49143108600846006800F02000009056
:1021100000BF00BF00BF40200190022002900120BC
:102120000390022004900820059001A92348FEF79F
:1021300027F98020019001A92048FEF721F94FF4EA
:10214000806001900120029003900220049001A978
:102150001A48FEF715F91A481A49086008464460FB
:1021600000218160C160016181610C214161FFF743
:102170007DF914480068C06820F0400011490968E2
:10218000C86010480068C06840F020000D49096828
:10219000C8604720FEF791FA032211464720FEF758
:1021A0009CFA00BF00224FF480610448FEF7F2F968
:1021B00000BF06B010BD00003038024000080240E9
:1021C000001401404401002070B502460C46FF2572
:1021D000FF2309E012F8010B80EA05010648405C84
:1021E00080EA03050548435C201EA4F10106B4B251
:1021F000F0D143EA052070BD783300087834000838
:1022000070B5284890F8680000B970BD254890F86E
:102210006600801E81B22348401CFFF7D5FF0446AC
:10222000204890F86600401E1E49491C0A5C481E62
:1022300090F86600801E085C02EB002085B2AC427C
:1022400027D1481E4078491E0978884220D1154878
:10225000807811281BD2DFE800F0090A0B0C0F1060
:10226000111415161A1A1A1A1A1A17000FE00EE08E
:102270000DE000F08FF80AE009E008E000F01AF93C
:1022800005E004E003E002E000F00EF800BF00E02B
:1022900000BF0020034981F8660081F8680000BF94
:1022A000B3E70000180300202DE9F041364801791A
:1022B000C07801EB002087B233488179407901EB87
:1022C00000201FFA80F8002513E0082000EB4501EC
:1022D0002D48401C415C072000EB45022A48401C69
:1022E000805C01EB00207919284A22F81100681C53
:1022F00085B24545E9DB24484078234981F86900E7
:102300000846817880F86A10C17880F86B100179EE
:1023100080F86C10417980F86D10817980F86E102A
:1023200006216930FFF750FF04462046E11704EB11
:1023300011610A0A144981F86F20E11704EB116159
:102340000912A4EB0121CAB20F4981F8702000BF25
:10235000012291020E48FEF71DF900BF002607E09A
:10236000094969318819012100F052FF701C86B2B9
:10237000082EF5DB00BF00224FF480610448FEF711
:1023800009F900BFBDE8F081180300208801002092
:10239000000802402DE9F04143480179C07801EB83
:1023A000002087B240488179407901EB00201FFA74
:1023B00080F800253C48027829466D1C693042545B
:1023C000032229466D1C42544FEA4800C11700EB16
:1023D00011610912A0EB0121CBB22A466D1C3249D2
:1023E00069318B54002621E0B919304A32F81100C6
:1023F000C11700EB1161C1F3072329466A1CD5B24E
:10240000294A69325354B919284A32F81100C117C0
:1024100000EB11610912A0EB0121CBB229466A1C25
:10242000D5B2214A69325354701CC6B24645DBDB33
:1024300029461D486930FFF7C7FE04462046E117CC
:1024400004EB1161C1F3072329466A1CD5B2164A71
:1024500069325354E11704EB11610912A4EB012115
:10246000CBB229466A1CD5B20F4A6932535400BF19
:10247000012291020E48FEF78DF800BF002607E00A
:10248000094969318819012100F0C2FE701CC6B2E9
:10249000AE42F5DB00BF00224FF480610448FEF736
:1024A00079F800BFBDE8F081180300208801002002
:1024B000000802402DE9F041002442480179C0782B
:1024C00001EB002085B23F488179407901EB002083
:1024D00086B23D4820F815603A4802782146641CCF
:1024E0006930425406222146641C42542846E917AA
:1024F00005EB1161C1F307232246641C31496931A0
:102500008B54E91705EB11610912A5EB0121CBB240
:102510002246641C2B4969318B543046F11706EB77
:102520001161C1F307232246641C264969318B548B
:10253000F11706EB11610912A6EB0121CBB222467D
:10254000641C204969318B5421461E486930FFF7CD
:102550003BFE07463846F91707EB1161C1F3072325
:102560002246641C174969318B54F91707EB116136
:102570000912A7EB0121CBB22246641C1149693133
:102580008B5400BF012291021048FEF703F800BFF0
:102590004FF000080AE00B49693101EB0800012106
:1025A00000F036FE08F101001FFA80F8A045F2DBCA
:1025B00000BF00224FF480610448FDF7EBFF00BF2D
:1025C000BDE8F081180300208801002000080240C7
:1025D00010B54FF41650FFF753FD11200249087053
:1025E000002081F8670010BD18030020704700002C
:1025F000002025E000EB4001144A02EB810109793B
:10260000E1B900EB400132F82110491C89B200EB1E
:1026100040020E4B23F8221000EB400203EB820233
:10262000528891420ADB002100EB400223F822107D
:10263000012100EB400203EB82021171411CC8B280
:10264000034909788842D5DB70470000100000205C
:1026500028000020FFF7F2F8002421E000F0BAFB88
:1026600010A000F01BFB04EB4400104901EB8000BC
:10267000007968B104EB44010C4A02EB81018868DF
:102680008047002004EB4401084A02EB81010871F5
:10269000601CC0B2044606490978884200DB002469
:1026A000DCE70000D2D1CEB9B9B70A001000002093
:1026B000280000207047704710B5FDF7B3FF10BD2C
:1026C0000348006840F4700001490860704700004A
:1026D00088ED00E010B50248FEF7ABFC10BD00002D
:1026E000F403002010B50268294B98420ED0B0F1D7
:1026F000804F0BD0274B984208D0274B984205D0EB
:10270000264B984202D0264B984203D122F0700209
:102710004B681A431E4B984220D0B0F1804F1DD019
:102720001C4B98421AD01C4B984217D01B4B984216
:1027300014D01B4B984211D01A4B98420ED01A4B12
:1027400098420BD0194B984208D0194B984205D0AB
:10275000184B984202D0184B984203D122F4407291
:10276000CB681A4322F080034C6943EA04020260FA
:102770008B68C3620B688362054B984202D0084B9A
:10278000984201D10B6903630123436110BD00002E
:10279000000001400004004000080040000C004020
:1027A0000004014000400140004401400048014055
:1027B00000180040001C00400020004070B5054695
:1027C000AC6B0020E085E0842046FEF725FD70BD5F
:1027D0000168C96821F490710268D1600168496993
:1027E00021F0010102685161016B012905D10168E5
:1027F000C96821F010010268D160202180F83E10E4
:1028000000210163704710B504462068C06820F0BD
:1028100040002168C860202084F83D002046FFF772
:102820000AF8002010BD70B5044694F83E00222836
:1028300056D1A068B0F5805F0CD1206950B9002551
:10284000A66A20684068C0F308003080A06A801C37
:10285000A06215E0A56A0026A068B0F5805F03D0ED
:10286000A06828B9206918B920684068287004E079
:102870002068406800F07F002870A06A401CA062B9
:10288000E08D401E80B2E08540BB2068C06820F02B
:1028900020002168C8602068C06820F4807021682A
:1028A000C8602068406920F001002168486120204C
:1028B00084F83E00206B01280AD12068C06820F00F
:1028C00010002168C860A18D2046FEF7A4FC02E03C
:1028D0002046FEF7F9FE0020206370BD0020FCE7D3
:1028E0000220FAE72DE9F84F04462068006920F439
:1028F0004050E1680843216808612169A0680843E5
:1029000061690843E169084300902068C06849F2A2
:102910000C618843009908432168C86020684069B9
:1029200020F44070A1690843216848617649206815
:10293000884203D075492068884203D1FDF7F8FF2B
:10294000814602E0FDF7E4FF8146E069B0F5004F03
:102950006CD102206168A0FB015003461920A9FB3D
:10296000007001462A463846FDF72AFC6421B0FB78
:10297000F1F04FEA001A02206168A0FB01510B46FA
:102980001920A9FB00712A463846FDF719FC834639
:1029900002206168A0FB015003461920A9FB0071C9
:1029A0002A463846FDF70CFC6421B0FBF1F000EB41
:1029B000C00101EB0010ABEB8000322101EBC00045
:1029C0006421B0FBF1F000F0F8000AEB400A0220AD
:1029D0006168A0FB015003461920A9FB0070014665
:1029E0002A463846FDF7ECFB834602206168A0FBCF
:1029F000015003461920A9FB00712A463846FDF70D
:102A0000DFFB6421B0FBF1F000EBC00101EB001033
:102A1000ABEB8000322101EBC0006421B0FBF1F090
:102A200000F007005044216888606AE00420616873
:102A3000A0FB015003461920A9FB007001462A465D
:102A40003846FDF7BDFB824604206168A0FB0150BB
:102A500003461920A9FB007001462A463846FDF7B7
:102A6000AFFB6421B0FBF1F000EBC00101EB001003
:102A7000AAEB8000322101EB00106421B0FBF1F0E1
:102A800000F0F00A04206168A0FB017003461920E1
:102A9000A9FB00513A462846FDF792FB6421B0FBA2
:102AA000F1F00AEB001A04206168A0FB01510B460B
:102AB0001920A9FB00712A463846FDF781FB8346A1
:102AC00004206168A0FB015003461920A9FB007097
:102AD00001462A463846FDF773FB6421B0FBF1F04E
:102AE00000EBC00101EB0010ABEB8000322101EBE9
:102AF00000106421B0FBF1F000F00F005044216899
:102B00008860BDE8F88F000000100140001401400B
:102B100010B5034699629A85DA8500201864222050
:102B200083F83E0000BF002083F83C0000BF186817
:102B3000C06840F480701C68E0601868406940F02C
:102B400001001C6860611868C06840F020001C68C3
:102B5000E060002010BD014691F83D00212828D1F9
:102B60008868B0F5805F0BD1086948B90A6A108897
:102B7000C0F308000B685860086A801C086205E012
:102B80000B6A581C086218780B685860C88C401E85
:102B900080B2C88458B90868C06820F080000B680B
:102BA000D8600868C06840F040000B68D86000201A
:102BB00070470220FCE72DE9F04104460D46174618
:102BC0009846069E21E0701CF8B12EB1FDF7EEFC90
:102BD000A0EB0800B04218D92068C06820F4D0707B
:102BE0002168C8602068406920F0010021684861C0
:102BF000202084F83D0084F83E0000BF002084F8C7
:102C00003C0000BF0320BDE8F08120680068284038
:102C1000A84201D1012000E00020B842D3D000201A
:102C2000F1E7000010B50248FEF7F8FA10BD000009
:102C30000001002008B5164800680068C0F3401085
:102C400020B34FF47A73012269461148FEF7ACFCB9
:102C5000104890F86800012800D108BD9DF80010C8
:102C60000C4890F8662090F86600401C094B83F8E9
:102C70006600581C81540020194681F865000846FA
:102C800090F86600012801D181F8670000BFE4E7F1
:102C9000440100201803002000BFFEE7014A02495A
:102CA00000F02FB8B92D0008080000200248006885
:102CB000C0F30220704700000CED00E010B50028C2
:102CC00004DB0A07130E054A135406E00A07140E24
:102CD000034A00F00F031B1FD45410BD00E400E0B2
:102CE00018ED00E002E008C8121F08C1002AFAD15E
:102CF00070477047002001E001C1121F002AFBD17C
:102D000070472DE9F04116460F460446002503E0C2
:102D10003946B047641C6D1C20780028F8D128463D
:102D2000BDE8F08170B505460C46074807490860C4
:102D30000846446000218160C560FEF7CBF8034877
:102D4000FEF722F970BD000000100040F4030020DF
:102D500001490860704700000400002010B50446D7
:102D60004FF47A7104FB01F000F002F810BD00008E
:102D700070B5034600224FF0E02675690D4E3668A7
:102D800003FB06F44FF0E026B16910E04FF0E026B7
:102D9000B06988420BD0884202D20E1A324402E057
:102DA0002E1A0E4432440146A24200D300E0EDE761
:102DB00000BF70BD0400002000BF054A126802F089
:102DC0004002002AF9D0C2B2014B5A60704700009D
:102DD0000010014010B50248FDF71DFC10BD0000B9
:102DE000E803002070B504460D4604480449086015
:102DF000084644608560FDF7DFFB70BD0030004091
:102E0000E803002000B587B000BF00BF002001909C
:102E10007548006840F00100734908600846006882
:102E200000F00100019000BF00BF00BF00BF00BF65
:102E3000002001900846006840F002000860084643
:102E4000006800F00200019000BF00BF00BF00BF9B
:102E500000BF002001900846006840F008000860AC
:102E60000846006800F00800019000BF00BF00BFE6
:102E700000BF00BF002001900846006840F0080035
:102E800008600846006800F00800019000BF00BF1D
:102E900000BF00BF00BF002001900846006840F05E
:102EA000040008600846006800F00400019000BFBC
:102EB00000BF00BF00BF00BF0020019008460068AF
:102EC00040F0040008600846006800F0040001902B
:102ED00000BF00BF00BF00BF00BF00200190084638
:102EE000006840F0010008600846006800F001003A
:102EF000019000BF00BF00BF00BF00BF00200190D5
:102F00000846006840F0010008600846006800F0CC
:102F10000100019000BF00BF00BF00BF00BF002044
:102F200001900846006840F0040008600846006808
:102F300000F00400019000BF00BF00BF00BF00BF51
:102F4000002001900846006840F004000860084630
:102F5000006800F00400019000BF00BF00BF012026
:102F6000029000200390012004900220059002A905
:102F70001E48FDF705FA0220029002A91C48FDF741
:102F8000FFF90120029002A91A48FDF7F9F9022081
:102F9000029002A91748FDF7F3F90120029002A957
:102FA0001548FDF7EDF90220029002A91248FDF73D
:102FB000E7F98020029002A90C48FDF7E1F94020D2
:102FC000029002A90948FDF7DBF91020029002A93E
:102FD0000948FDF7D5F92020029002A90648FDF71F
:102FE000CFF907B000BD00003038024000000240B9
:102FF00000040240000C02400008024010B501210C
:103000000948FDF7BFFA58B91420FFF7A7FE0121C0
:103010000548FDF7B7FA30B901200449488002E0BD
:1030200000200249488010BD0000024088010020B5
:1030300010B520210948FDF7A5FA58B91420FFF76B
:103040008DFE20210548FDF79DFA30B90A2004497C
:10305000888202E000200249888210BD00080240F8
:103060008801002010B502210948FDF78BFA58B9F4
:103070001420FFF773FE02210548FDF783FA30B9EB
:1030800001200449888002E000200249888010BDA8
:10309000000402408801002010B501210948FDF715
:1030A00071FA58B91420FFF759FE01210548FDF7C0
:1030B00069FA30B901200449C88002E000200249C1
:1030C000C88010BD000C02408801002010B502210C
:1030D0000948FDF757FA58B91420FFF73FFE0221BF
:1030E0000548FDF74FFA30B901200449088102E094
:1030F00000200249088110BD000C02408801002018
:1031000010B501210948FDF73DFA58B91420FFF721
:1031100025FE01210548FDF735FA30B9052004499F
:10312000488102E000200249488110BD00080240A9
:103130008801002010B502210948FDF723FA58B98B
:103140001420FFF70BFE02210548FDF71BFA30B9EA
:1031500006200449888102E000200249888110BDD0
:10316000000802408801002010B580210948FDF7C1
:1031700009FA58B91420FFF7F1FD80210548FDF741
:1031800001FA30B907200449C88102E00020024951
:10319000C88110BD000002408801002010B5402108
:1031A0000948FDF7EFF958B91420FFF7D7FD402182
:1031B0000548FDF7E7F930B908200449088202E024
:1031C00000200249088210BD000002408801002052
:1031D00010B510210948FDF7D5F958B91420FFF7AB
:1031E000BDFD10210548FDF7CDF930B9092004498E
:1031F000488202E000200249488210BD00080240D7
:103200008801002010B5FFF725FA002010BD00004E
:1032100070B504460D4600BF012291020948FDF732
:10322000B9F900BF4FF47A732A4621460648FEF7E3
:1032300099FA00BF00224FF480610248FDF7AAF915
:1032400000BF70BD00080240440100202DE9F0419C
:1032500092B080460C4615461E460027302106A82F
:10326000FCF7E6FF142101A8FCF7E2FF00BF0020F5
:1032700000902A48006840F08050284908600846BD
:10328000006800F08050009000BF00BF00BF002029
:1032900000902348006840F48040214908600846B7
:1032A000006800F48040009000BF00BF012006903D
:1032B0000004079002200C9041050D91CDF83C8050
:1032C0000E941095119606A8FDF79AFB07461FB1BC
:1032D000012012B0BDE8F0810F2001900220029081
:1032E000002003904FF4A05004904FF480500590BC
:1032F000052101A8FDF744FA07460FB10120E8E7D0
:10330000FDF74EF941F20101884205D105480068F8
:1033100040F48070034908600020DAE7403802403A
:1033200000700040003C024010B5044609480A49BC
:1033300008600846446000218160C16001618161CC
:103340000C214161FEF792F8012204490248FEF780
:1033500099F910BD00100140000100200E0000206E
:103360000000000000000000010203040607080935
:10337000000000000102030400C1814001C080413F
:1033800001C0804100C1814001C0804100C1814035
:1033900000C1814001C0804101C0804100C1814025
:1033A00000C1814001C0804100C1814001C0804115
:1033B00001C0804100C1814001C0804100C1814005
:1033C00000C1814001C0804100C1814001C08041F5
:1033D00001C0804100C1814000C1814001C08041E5
:1033E00001C0804100C1814001C0804100C18140D5
:1033F00000C1814001C0804101C0804100C18140C5
:1034000000C1814001C0804100C1814001C08041B4
:1034100001C0804100C1814000C1814001C08041A4
:1034200001C0804100C1814001C0804100C1814094
:1034300000C1814001C0804100C1814001C0804184
:1034400001C0804100C1814001C0804100C1814074
:1034500000C1814001C0804101C0804100C1814064
:1034600000C1814001C0804100C1814001C0804154
:1034700001C0804100C1814000C0C101C30302C23C
:10348000C60607C705C5C404CC0C0DCD0FCFCE0EA4
:103490000ACACB0BC90908C8D81819D91BDBDA1A14
:1034A0001EDEDF1FDD1D1CDC14D4D515D71716D684
:1034B000D21213D311D1D010F03031F133F3F232F4
:1034C00036F6F737F53534F43CFCFD3DFF3F3EFE64
:1034D000FA3A3BFB39F9F83828E8E929EB2B2AEAD4
:1034E000EE2E2FEF2DEDEC2CE42425E527E7E62644
:1034F00022E2E323E12120E0A06061A163A3A262B4
:1035000066A6A767A56564A46CACAD6DAF6F6EAE23
:10351000AA6A6BAB69A9A86878B8B979BB7B7ABA93
:10352000BE7E7FBF7DBDBC7CB47475B577B7B67603
:1035300072B2B373B17170B0509091519353529273
:1035400096565797559594549C5C5D9D5F9F9E5EE3
:103550005A9A9B5B99595898884849894B8B8A4A53
:103560004E8E8F4F8D4D4C8C4484854587474686C3
:10357000824243834181804098350008000000204A
:1035800038000000E42C0008D03500083800002086
:1035900008080000F42C00080024F40000000000DB
:1035A000000000000000000000000100000000001A
:1035B00079200008000001000000000069200008D8
:1035C00002000000000000001000000001000000E8
:040000050800018965
:00000001FF
