:020000040800F2
:1000000090380020A10100088B36000889290008DB
:100010005B330008D50B00080D430008000000000A
:100020000000000000000000000000000B37000886
:10003000110E00080000000009370008E53A00082A
:10004000BB010008BB010008BB010008BB010008A0
:10005000BB010008BB010008BB010008BB01000890
:10006000BB010008BB010008BB010008BB01000880
:10007000BB010008BB010008BB010008BB01000870
:10008000BB010008BB010008BB010008BB01000860
:10009000BB010008BB010008BB010008BB01000850
:1000A000BB010008BB010008BB010008BB01000840
:1000B000BB010008BB010008BB010008BB01000830
:1000C000BB010008BB010008BB010008BB01000820
:1000D000BB010008F940000805410008BB01000809
:1000E000BB010008BB010008BB010008BB01000800
:1000F000BB010008BB010008BB010008BB010008F0
:10010000BB010008BB010008BB010008BB010008DF
:10011000BB0100088D3D0008F93A0008BB0100084A
:10012000BB010008C90C0008BB010008BB010008A6
:10013000ED0C0008BB010008BB010008BB01000872
:10014000BB010008BB010008BB010008BB0100089F
:10015000BB010008BB010008BB01000859410008B1
:10016000BB010008BB010008BB010008BB0100087F
:10017000BB010008BB010008BB0100080000000033
:10018000BB010008BB010008DFF810D000F0B4FB91
:10019000004800470D980008AFF300809038002019
:1001A0000648804706480047FEE7FEE7FEE7FEE711
:1001B000FEE7FEE7FEE7FEE7FEE7FEE7E93A0008B6
:1001C000890100082DE9F05F0546002092469B4614
:1001D00088460646814640241BE02846414647465D
:1001E000224600F0BCFA53465A46C01A914110D339
:1001F00011461846224600F0A3FA2D1A67EB0108B3
:100200004F4622460120002100F09AFA17EB000920
:100210004E41201EA4F10104DFDC484631462A4647
:100220004346BDE8F09F2DE9F0410024061B25461A
:1002300071F1000605DA01240027D0EB070067EB17
:100240000101161E73F1000605DA0027D2EB070242
:10025000012567EB0303FFF7B5FF86460E461746F9
:100260009C46AC4204D00025D0EB050E65EB0106A0
:1002700024B10020D2EB000760EB030C704631463E
:100280003A466346BDE8F081D2B201E000F8012BA6
:10029000491EFBD270470022F6E710B513460A4606
:1002A00004461946FFF7F0FF204610BD30B504465E
:1002B0000020034600E05B1C934203D2E05CCD5C6F
:1002C000401BF8D030BD2DE9FE4F804681EA030087
:1002D000C00F0C46009021F0004123F00045B8EB20
:1002E0000200A94105D24046214690461C460B46D5
:1002F000024623F00040104347D0270DC7F30A0001
:10030000C3F30A510290401A019040286BDAC3F3FC
:10031000130040F4801B0098924620B10023D2EBDA
:10032000030A63EB0B0B01985946C0F1400250469B
:1003300000F006FA06460D4650465946019A00F06E
:100340001EFA10EB08006141002487EA115284EA8A
:10035000E7731A4340D0009A62B3019A012A4FEA28
:10036000075215DC001B61EB02014FF0004202EA6C
:100370000752CDE90042001C41F5801132462B4660
:1003800000F055FA03B0BDE8F08F40462146F9E78A
:10039000001B61EB0201001C41F5801300185B415A
:1003A0002018A2F5001747EB030140EAD570B619F3
:1003B0006D4111E06D084FEA360645EAC0754FEA17
:1003C0000752001B61EB0201001C41F58011490836
:1003D0004FEA30000019514132462B4603B0BDE8C8
:1003E000F04F00F015BA0098012240000023D0EB36
:1003F000020263EBE073009821464FEAE074B8EB29
:10040000000061EB0401E9E783F000435BE781F062
:10041000004158E72DE9FE4F81EA030404F000444F
:1004200021F0004100944FF0000B23F0004350EA0C
:1004300001045ED052EA03045BD0C3F30A54C1F353
:100440000A552C44A4F2F3340194A0FB0254C1F3E6
:10045000130141F48011C3F3130343F4801301FB30
:10046000024400FB034E840A970A44EA815447EA97
:100470008357A4FB076802958D0A05FB07854FEAA1
:10048000932C04FB0C542705029D4FEA065847EABB
:100490001637B5EB08056EEB070C870E920E47EA90
:1004A000811742EA8312A7FB0201B6EB0B0164EB52
:1004B00000042B0D43EA0C335E1844EB1C50DA4663
:1004C0005146E7FB0201C5F313044FEA0B3343EA3D
:1004D00014534FEA0432019C43EA0603A4F10C04CE
:1004E0000294009CCDE900B400F0A1F903B0BDE88E
:1004F000F08F00200146F9E72DE9F04D81EA030471
:1005000004F0004B21F0004514464FF0000A23F0A0
:10051000004150EA050220D054EA01021DD0C5F383
:100520000A570246C5F31303C1F31300C1F30A5679
:1005300040F4801543F48013A7EB0608101BD64641
:1005400008F2FD3873EB050002D308F1010801E061
:1005500092185B41B8F1000F03DA00200146BDE8B4
:10056000F08D00204FF48011064684460EE0171BE4
:1005700073EB050705D3121B63EB050306434CEA37
:10058000010C49084FEA300092185B4150EA01071C
:10059000EDD152EA030012D082EA040083EA050199
:1005A000084305D0101BAB4106D20122002306E010
:1005B00000224FF0004302E06FF0010253101AEBEB
:1005C00006004CEB085110EB0A0041EB0B01BDE8B3
:1005D000F04D00F01DB90EB5C10F80EAE07008447F
:1005E000CA07002140F233438DE80E000A460B464D
:1005F00000F01DF903B000BD0EB540F23341029189
:100600000021CDE900110A460B4600F010F903B0B5
:1006100000BD70B5C1F30A5201F000450024C1F3DA
:10062000130140F2FF3341F480119A4201DA0020B5
:1006300070BD40F233439A42A2F2334203DC52428D
:1006400000F08DF800E090402C43F1D0404270BDA6
:10065000C1F30A5210B5C1F3130140F2FF3341F464
:1006600080119A4201DA002010BD40F233439A42D1
:10067000A2F2334203DC524200F071F810BD904008
:1006800010BD00F0004230F000400AD0C10D01F56D
:100690006071C0F3160042EA0151C20840071143DD
:1006A000704700200146704730B5041E71F1000408
:1006B00004DB4FF00044404264EB0101141E73F16F
:1006C000000405DB1C464FF00043524263EB040379
:1006D0008B4208BF824230BD30B5041E71F1000468
:1006E00004DB4FF00044404264EB0101141E73F13F
:1006F000000405DB1C464FF00043524263EB040349
:10070000994208BF904230BD01F0004330B421F05F
:10071000004150EA010206D00A0DA2F56072C1F351
:100720001301002A02DC30BC00207047440F44EA69
:10073000C104C100E01830BC00EBC25000F031B879
:10074000202A04DB203A00FA02F100207047914091
:10075000C2F1200320FA03F3194390407047202A86
:1007600004DB203A21FA02F00021704721FA02F35B
:10077000D040C2F120029140084319467047202A18
:1007800006DBCB17203A41FA02F043EAE07306E0B9
:1007900041FA02F3D040C2F12002914008431946C9
:1007A00070470029A8BF7047401C490008BF20F0CF
:1007B0000100704710B4B0FA80FC00FA0CF050EA67
:1007C000010404BF10BC704749B1CCF1200421FAE8
:1007D00004F411FA0CF118BF012121430843A3EBE3
:1007E0000C01CB1D4FEA00614FEA102042BF0020F0
:1007F00010BC704700EBC35010440029A4BF10BCCC
:100800007047401C490008BF20F0010010BC704731
:1008100010B5141E73F1000408DA401C41F1000108
:1008200092185B411A4301D120F0010010BD2DE95F
:10083000F04D92469B4611B1B1FA81F202E0B0FA56
:1008400080F220329046FFF77BFF04460F4640EAD5
:100850000A0041EA0B0153465A46084313D0114699
:1008600053EA010019D0C8F140025046FFF777FF64
:1008700005460E46504659464246FFF761FF08437B
:1008800005D0012004E020463946BDE8F08D002067
:10089000054346EAE0762C4337430A986305E40AA9
:1008A000A0EB08000022FD0A44EA47540A3002D5B2
:1008B00000200146E9E7010510196941DDE9084515
:1008C00000196941BDE8F04DA2E770B521F0004381
:1008D00003430CD0C1F30A550024D5EB040564EBA7
:1008E0000403D617AD1AB34102DB0020014670BDE8
:1008F000201841EB025170BD064C074D06E0E06840
:1009000040F0010394E8070098471034AC42F6D356
:10091000FFF73EFCECC800080CC900082DE9F04DBB
:1009200000231A461B1A8A4103DB00200146BDE85A
:10093000F08DC1F30A52C1F3130141F480154FF059
:10094000000BD10702D100186D41521E002704464A
:1009500040F2FF11384601EB620A3E4680460246ED
:1009600000204FF48011FFF7FAFEC2197141BB1845
:1009700046EB0100B4EB030C75EB000C04D3E41A56
:1009800065EB000517460E46241908F101006D417C
:1009900080463428E3DDF91946EB0600091BA8411F
:1009A00003D24FF0FF32134601E0002213461BEB47
:1009B000070046EB0A51BDE8F04DFFF729BF70B5BF
:1009C0008C1810F8015B15F0070301D110F8013BFA
:1009D0002A1106D110F8012B03E010F8016B01F881
:1009E000016B5B1EF9D12B0705D40023521E0DD4D9
:1009F00001F8013BFAE710F8013BCB1A921C03E027
:100A000013F8015B01F8015B521EF9D5A142D8D35E
:100A1000002070BD10B50146886B026C12F0500FBB
:100A200005D0026CD20626D500F0A4FA10BD016CE8
:100A300041F40071016401688A6812F0405F17D1C7
:100A4000027EAAB9CA6A12F4700F02D08A685205EF
:100A50000ED44A6822F020024A60016C21F48071B1
:100A60000164016CC90403D4016C41F0010101640B
:100A700000F07EFA10BD806BC26CBDE810400846E5
:100A8000104710B5806B40210164416C41F00401B6
:100A9000416400F06FFA10BD10B5806B00F069FA88
:100AA00010BD00004A494A6822F440324A604A6850
:100AB00043681A434A6001684A6822F480724A60B7
:100AC00001684A68036942EA03224A6001684A6889
:100AD00022F040724A6001684A6883681A434A609B
:100AE00001688A6822F400628A6001688A68C368C3
:100AF0001A438A60816A6FF07062D14214D0016833
:100B00008A6822F070628A6001688A68836A1A4380
:100B10008A6001688A6822F040528A6001688A68A7
:100B2000C36A1A438A6009E001688A6822F0706229
:100B30008A6001688A6822F040528A6001688A6887
:100B400022F002028A6001688A68037E42EA430258
:100B50008A6090F8201089B101684A6842F4006206
:100B60004A6001684A6822F460424A6001684B6842
:100B7000426A521E43EA42324A6004E001684A680F
:100B800022F400624A600168CA6A22F47002CA62F2
:100B90000168CB6A828B521E43EA0252CA62016824
:100BA0008A6822F400728A6001688A6890F830309E
:100BB00042EA43228A6001688A6822F480628A607D
:100BC00001688A68406942EA8020886070470000B6
:100BD00000230140FEE710B504462DED028BF0EE38
:100BE000001A94ED070A94ED061AF8EE400AB8EEE2
:100BF000411A51EE210AB8EE401A80EE810A10EE39
:100C0000100AFFF73EFD41EC180B606AFFF739FD53
:100C100081F0004153EC182BFFF7FCFBFFF774FD4C
:100C200000EE100A03F0F0FFF7EE000A30EE201A93
:100C3000D4ED020A94ED000A70EEC01AC1EE810AEA
:100C400030EE200A84ED010AD4ED040AB4EEE00A85
:100C5000F1EE10FA01DDC4ED010AD4ED010A94EDC4
:100C6000050AF4EEC00AF1EE10FA01D284ED010A91
:100C7000BDEC028B10BDD0ED020A90ED000A30EE03
:100C8000C01AD0ED070AF8EE601AC1EE210A90ED05
:100C9000061AB8EE411A00EE810A80ED010AD0ED85
:100CA000040AB4EEE00AF1EE10FA01DDC0ED010A2B
:100CB000D0ED010A90ED050AF4EEC00AF1EE10FA4B
:100CC00001D280ED010A704706480068000508D58A
:100CD00005490120487003480830016841F400616B
:100CE0000160704700640240170000200648006859
:100CF000800608D5054901200870034808300168BE
:100D000041F0200101607047046402401700002098
:100D10000168CAB2103A1823B2FBF3F2064B9B5C8F
:100D2000C3656FF30901032A02D9091D816500E03B
:100D30008165806D704700006EC5000810B50146E2
:100D400000208A6A8B694FF0C074002B0ED0B3F577
:100D5000005F1AD062B3012A2AD0022A28D0032ABF
:100D600003D1C96AC90100D5012010BD1AB1012AF9
:100D700006D0022AF9D1C96AC901F6D5012010BDF1
:100D8000C96AA142FBD1012010BD52B1012A0AD08B
:100D9000022A06D0032AF7D1C96AA142F4D1012060
:100DA00010BD012010BDC96AC901FBD5012010BDCD
:100DB000012010BD30B50468256825F48025256024
:100DC000046863608368402B04D0036899600068FE
:100DD000C26030BD03689A600068C16030BD000029
:100DE0000A4800218160C160016141618161C16186
:100DF000016241628162C162016341638163C163D7
:100E0000016441648164C1647047000018090020D6
:100E1000704707F0F5B8000078B50024009490F80A
:100E20003C20012A19D0012280F83C200A680725BD
:100E3000092A14D90368DE680A3A02EB4202954097
:100E4000AE43DE600A788B680A3A02EB42029340B6
:100E50000268D5682B43D36011E0022078BD036897
:100E60001E6902EB42029540AE431E610A788B6810
:100E700002EB42029340026815692B4313614A68F2
:100E80001F25072A13D203685E6B521E02EB8202F3
:100E90009540AE435E630A8893B20A79521E02EB14
:100EA000820293400268556B2B43536328E00D2A5E
:100EB00013D203681E6BD21F02EB82029540AE4331
:100EC0001E630A8893B20A79D21F02EB8202934012
:100ED0000268156B2B43136312E00368DE6A0D3A58
:100EE00002EB82029540AE43DE620A8893B20A7931
:100EF0000D3A02EB820293400268D56A2B43D3621B
:100F0000174A184B05689D4206D10D68122D03D172
:100F1000556845F48005556005689D421BD10B68F6
:100F2000102B01D0112B16D1536843F400035360EA
:100F3000096810290FD10C490C4A0968B1FBF2F17C
:100F400001EB81014900009102E00099491E0091E6
:100F500000990029F9D180F83C40002078BD0000BC
:100F600000230140002001400000002040420F000B
:100F700070477047704770B504460026002C03D0B8
:100F8000206C002510B107E0012070BD204600F064
:100F90001CF8656484F83C50206CC00610D4206CAA
:100FA00020F4885040F0020020642046FFF77AFDCC
:100FB0006564206C20F0020040F00100206400E035
:100FC000012684F83C50304670BD7047F8B50446A1
:100FD0000023009394F83C00012807D0012084F8F6
:100FE0003C0020688568ED0702D014E00220F8BDBF
:100FF000856845F0010585604648474D0068B0FBAF
:10100000F5F000EB4000009002E00098401E0090D8
:1010100000980028F9D120688568ED0503D585681A
:1010200025F48075856020688568ED0768D0256C9B
:1010300040F20166B54345F480752564406840057B
:1010400005D5206C20F4005040F480502064206CC2
:10105000C00404D5606C20F00600606400E06364A6
:1010600084F83C302D4EA36B2D48D863A36B2D48DC
:101070001864A36B2C48D86423686FF022001860B2
:101080002068436843F0806343602068836843F4CA
:1010900080738360206813464C300A46A56B014676
:1010A000284600F030F970682049C00607D0206853
:1010B00088422DD1816811F0405F1CD028E0206863
:1010C00088420FD01A4A904203D1D1F80423D206A5
:1010D00008D0184A90421BD1D1F8041301F01F0127
:1010E000102915D2816811F0405F11D1816841F05B
:1010F000804181600CE0816841F08041816007E0BF
:10110000206C40F010002064606C40F001006064CE
:101110000020F8BD0000002040420F0000230140E5
:10112000150A0008990A0008830A000800200140F7
:1011300000210140002201402DE9F0410446A76D45
:1011400000F01CFA054694F835000026022806D067
:101150008020606584F834600120BDE8F08120685B
:10116000016821F0160101602068416921F08001C9
:101170004161206C08B9A06C20B12068016821F0A1
:10118000080101602068016821F0010101600BE0A5
:1011900000F0F4F9401B052806D9202034342062E1
:1011A000267003206070D8E720680068C007EFD180
:1011B00034343F2094F828108840B860267001200D
:1011C00060700020C9E790F83510022903D0802113
:1011D000416501207047052180F8351000680168DD
:1011E00021F0010101600020704700002DE9F0416D
:1011F000044600F0C3F905465CB1002684F834606B
:10120000022084F835002068016821F001010160A6
:101210000DE00120BDE8F08100F0B0F9401B052889
:1012200005D920206065032084F83500F2E72068A6
:101230000068C007F0D121680A6820480240D4E95C
:1012400001031843D4E903352B431843636918435A
:10125000A3691843E3691843236A18431043626A79
:10126000042A03D1D4E90B231A43104308602068F1
:10127000406920F00700656A2946054301270429D3
:101280000DD1A06A0543E06A48B12046FFF756FD3C
:1012900028B14020606584F835700120BAE72068E5
:1012A00045612046FFF734FD94F85C203F219140D2
:1012B0008160666584F835700020ABE73F8010F0F0
:1012C00070B50446002594F8340001280CD00120A4
:1012D00084F8340094F835600020012E06D084F89C
:1012E00034000225284670BD022070BD022684F815
:1012F000356060652046FFF75DFD2068016841F0BC
:1013000001010160EEE72DE9F04104460025A66DDC
:1013100094F8340001280DD0012084F8340094F8AA
:1013200035700020012F07D084F8340002252846AC
:10133000BDE8F0810220FBE7022784F83570606584
:101340002046FFF737FD94F85C103F208840B060DE
:101350002068016841F016010160206C20B120680E
:10136000016841F0080101602068016841F0010155
:101370000160DCE72DE9F84F0022DFF89C914FF087
:10138000010809F1040A03274FF00F0C0AF1040BBE
:1013900008FA02F50B682B40AB4272D10C7904F0CD
:1013A0000304012C01D0022C15D18668540007FAE1
:1013B00004FE26EA0E06D1F80CE00EFA04FE4EEA10
:1013C000060EC0F808E04468AC430D79C5F300157B
:1013D0009540254345600C79E443A40708D0C568CF
:1013E000540007FA04F6B5438E68A6402E43C66043
:1013F0000C7904F00304022C11D1D40800EB84060C
:10140000356A5407E40E0CFA04FE25EA0E05D1F8FD
:1014100010E00EFA04FE4EEA050EC6F820E005685C
:10142000540007FA04F6B5430E7906F00306A64009
:101430002E4306604C68E40067D5384C256845F4B7
:1014400080452560246804F480440094344C22F0E4
:1014500003052E19D6F8085894074FEA147E0CFAA3
:101460000EF4A5432F4CA04201D1002424E02E4CC1
:10147000A04201D101241FE02C4CA04202D1022441
:101480001AE042E02A4CA04201D1032414E0294C86
:10149000A04201D104240FE0274CA04201D1052431
:1014A0000AE0264CA04201D1062405E0244CA042CB
:1014B00001D1072400E0082404FA0EF42C43C6F8F6
:1014C0000848D9F800409C434D68ED0300D51C4303
:1014D000C9F80040DAF800409C434D68AD0300D5E0
:1014E0001C43CAF80040DBF800409C434D68ED0205
:1014F00000D51C43CBF80040074D0C352C689C43AD
:101500004E68B60200D51C432C60521C102AFFF412
:101510003FAFBDE8F88F0000003C01404438024076
:101520000030014000000240000402400008024078
:10153000000C02400010024000140240001802405B
:10154000001C02400069084201D0012070470020C1
:101550007047426921EA02030A4043EA024181617D
:101560007047002A01D0816170470904816170478A
:1015700001480068000C7047002004E001488068C2
:10158000704700000003002070B50446002C11D005
:1015900021684CF6CC400860216845F2555008603F
:1015A000D4E9001048602168A0688860FFF7E6FF72
:1015B00005460CE0012070BDFFF7E0FF401B30281E
:1015C00005D92068C068800701D0032070BD20685D
:1015D000C0688007F0D121684AF6AA200860002080
:1015E00070BD00684AF6AA21016000207047000023
:1015F000024881680278114481607047000300202E
:1016000010B50948016841F400710160016841F4B6
:1016100080610160032000F059F80F2000F006F807
:1016200000F026F8002010BD003C024070B50446D2
:101630000D4D4FF47A712878B1FBF0F00B49096831
:10164000B1FBF0F000F034FB08B1012070BD102CAC
:1016500007D200222146501E00F018F86C600020CE
:1016600070BD012070BD00000003002000000020BC
:101670007047002809DB00F01F020121914040095A
:10168000800000F1E020C0F800117047F0B40D4672
:101690000D4B1B68C3F30223C3F10704042C00D9CC
:1016A0000424191D072901D2002300E0DB1E0126B6
:1016B00006FA04F1491E294099409E40761E1640C4
:1016C0003143F0BC02F071BE0CED00E000F0070108
:1016D000054A10684FF6FF03184040EA012003490D
:1016E00008431060704700000CED00E00000FA05B0
:1016F0002DE9F04704460D46002C13D0DFF8289161
:10170000D9F80000EFB200F00700A8420CD289F827
:101710000070D9F8000000F00700A84204D00120B2
:10172000BDE8F0870120FBE72068404E810712D515
:10173000400703D5306840F4E0503060207800075F
:1017400003D5306840F4604030603068A16820F014
:10175000F000084330602078C00731D0334960681A
:101760000839012808D002280BD0032809D00968BD
:1017700089070BD40120D3E70968890306D4012027
:10178000CEE70968890101D40120C9E7316821F059
:10179000030101433160FFF7F1FE804641F2883AD0
:1017A00007E0FFF7EBFEA0EB0800504501D903204E
:1017B000B6E73068616800F00C00B0EB810FF0D143
:1017C000D9F8000000F00700A84209D989F8007094
:1017D000D9F8000000F00700A84201D001209FE7DF
:1017E0002078400705D53068E16820F4E0500843D0
:1017F00030602078000706D53068216920F4604009
:1018000040EAC100306000F03FF83168084AC1F397
:101810000311515CC8400749086007480068FFF79A
:1018200005FF00207CE70000003C02400838024031
:1018300010B30008000000200403002001480068E5
:10184000704700000000002000B5FFF7F7FF0449D3
:101850000968044AC1F38221515CC84000BD000000
:101860000838024020B3000800B5FFF7E7FF04493D
:101870000968044AC1F34231515CC84000BD000010
:101880000838024020B3000810B51748006810F06F
:101890000C01164816D04310042912D0082911D182
:1018A000114C241F216801F03F02216849020AD52A
:1018B0002068C0F38810A0FB03010023FEF782FC20
:1018C00009E0184610BD21680023C1F38811A1FB6F
:1018D0000001FEF777FC2168C1F30141491C490072
:1018E000B0FBF1F010BD0000083802400024F40005
:1018F0002DE9F84F0446002C13D02078DFF8A083A0
:10190000C007A8F1040556D008F104000168C1F32E
:10191000810101290CD00068C0F38100022803D0A6
:101920000DE00120BDE8F88FD8F80000400206D590
:10193000286880033FD5606870BB0120F2E76068CB
:10194000B0F5803F10D0B0F5A02F12D0286820F459
:1019500080302860286820F4802028606068E0B12A
:10196000FFF70CFE064614E0286840F4803028603B
:10197000F4E7286840F480202860286840F480302C
:101980002860EBE7FFF7FAFD801B642801D90320EC
:10199000C8E728688003F5D50DE0FFF7EFFD0646A0
:1019A00006E0FFF7EBFD801B642801D90320B9E7AF
:1019B00028688003F5D42078BA4F80074FF00009DB
:1019C00048D5B748001D016811F00C0F08D0006819
:1019D000C0F38100022813D1D8F8000040020FD4D0
:1019E0002868800704D5E068012801D0012099E724
:1019F0002868216920F0F80040EAC100286029E049
:101A0000E068B8B101203860FFF7B8FD064606E08F
:101A1000FFF7B4FD801B022801D9032082E7286864
:101A20008007F5D52868216920F0F80040EAC10058
:101A300028600FE0C7F80090FFF7A0FD064606E01B
:101A4000FFF79CFD801B022801D903206AE7286864
:101A50008007F5D42078000729D5DFF844A2924802
:101A600061690AF1700A89B101210160FFF786FD01
:101A7000064606E0FFF782FD801B022801D90320FD
:101A800050E7DAF800008007F4D510E0C0F80090C5
:101A9000FFF774FD064606E0FFF770FD801B022885
:101AA00001D903203EE7DAF800008007F4D420785B
:101AB000400778D54FF0000A79483C300068C000F4
:101AC0000BD477483C30016841F0805101600068D8
:101AD00000F0805000904FF0010ADFF8D0B1DBF841
:101AE0000000C00514D4DBF8000040F48070CBF88F
:101AF0000000FFF743FD064606E0FFF73FFD801BB1
:101B0000022801D903200DE7DBF80000C005F4D559
:101B1000634EA0686C3601280FD0052812D03068BB
:101B200020F001003060306820F004003060A068D0
:101B3000F8B1FFF723FD834617E0306840F001005D
:101B40003060F4E7306840F004003060306840F006
:101B500001003060EBE7FFF711FDA0EB0B0141F254
:101B60008830814201D90320DCE630688007F2D555
:101B700010E0FFF703FD834609E0FFF7FFFCA0EB51
:101B80000B0141F28830814201D90320CAE6306856
:101B90008007F2D4BAF1010F05D141483C30016809
:101BA00021F080510160A069C0B33D49091D096859
:101BB0004FF0FF36C1F38101022946D0022805D03B
:101BC000C7F86090FFF7DAFC04463AE0C7F8609087
:101BD000FFF7D4FC814607E0FFF7D0FCA0EB09003B
:101BE000022801D903209DE628688001F4D4D4E9B5
:101BF00007010843616AA26A890106EB520241EAC1
:101C00000241084394F82C1040EA0160C8F8000033
:101C100001203866FFF7B2FC044607E03DE0FFF71D
:101C2000ADFC001B022801D903207BE62868800157
:101C3000F5D532E0FFF7A2FC001B022801D90320F2
:101C400070E628688001F5D427E0012823D0D8F871
:101C50000000E26900F4800191421AD1226A00F08A
:101C60003F01914215D147F6C071626A0140B1EB64
:101C7000821F0ED1A26A00F4403106EB5202B1EB92
:101C8000024F06D194F82C1000F07060B0EB016F99
:101C900003D0012046E6012044E6002042E6000091
:101CA0000438024000004742800E47420070004066
:101CB00010B5401EB0F1807F01D3012010BD4FF060
:101CC000E02460610F21601702F06FFB0020A0612B
:101CD00007202061002010BD7047704710B50446F2
:101CE000002C03D094F83D0010B107E0012010BD96
:101CF000002084F83C00204600F016F8022084F80A
:101D00003D00211D206801F0FDFE01203D34607280
:101D10006070A070E07020716071A071E07120723D
:101D20002070002010BD000008B500680B498842F3
:101D300012D10B48016841F010010160006800F009
:101D400010000090012211463620FFF79FFCBDE8ED
:101D500008403620FFF78DBC08BD00000010004091
:101D60004038024090F83D10012901D00120704711
:101D7000022180F83D100168CA6842F00102CA6081
:101D800000681449884214D0B0F1804F11D0124934
:101D900088420ED0114988420BD01149884208D0A0
:101DA0001049884205D01049884202D00F49884224
:101DB00009D1816801F00701062908D0016841F0C6
:101DC0000101016003E0016841F0010101600020B0
:101DD000704700000000014000040040000800407F
:101DE000000C004000040140004001400018004089
:101DF000704770B50446206801694FF00005C9437B
:101E0000890716D4C168C943890712D4E91E016144
:101E10000120207720688069800703D02046FFF7E3
:101E2000E7FF05E0204600F09BF8204600F022FA8C
:101E3000257720680169C943490718D4C168C94397
:101E4000490714D46FF00401016102202077206853
:101E5000806910F4407F03D02046FFF7C9FF05E0FA
:101E6000204600F07DF8204600F004FA257720682F
:101E70000169C943090717D4C168C943090713D4C5
:101E80006FF008010161042020772068C069800795
:101E900003D02046FFF7ACFF05E0204600F060F8D5
:101EA000204600F0E7F9257720680169C943C90693
:101EB00018D4C168C943C90614D46FF01001016178
:101EC000082020772068C06910F4407F03D02046A6
:101ED000FFF78EFF05E0204600F042F8204600F0B4
:101EE000C9F9257720680169C943C90708D1C168C4
:101EF000C943C90704D1891E0161204600F02AFAAE
:101F000020680169C943090609D4C168C9430906A3
:101F100005D46FF0800101612046FFF7DDFE2068E7
:101F20000169C943490609D4C168C943490605D4B2
:101F30006FF040010161204600F060FA20680169FD
:101F4000C94389060BD4C168C943890607D46FF019
:101F5000200101612046BDE87040FFF7BEBE70BDA4
:101F6000704770B504460D4694F83C0001280AD02D
:101F7000012084F83C0042B1042A1AD0082A2DD04E
:101F80000C2A53D13EE0022070BD2946206801F0A2
:101F90002DFE2068816941F0080181612068816916
:101FA00021F004018161206881692A6911438161FE
:101FB0003CE02946206801F04DFE2068816941F42B
:101FC000006181612068816921F4806181612068FC
:101FD00081692A6941EA0221816127E02946206856
:101FE00001F072FE2068C16941F00801C1612068FA
:101FF000C16921F00401C1612068C1692A691143E6
:10200000C16113E02946206801F096FE2068C1698D
:1020100041F40061C1612068C16921F48061C1613E
:102020002068C1692A6941EA0221C161002084F85F
:102030003C0070BD10B50446002C03D094F83D0060
:1020400010B107E0012010BD002084F83C002046BC
:1020500000F016F8022084F83D00211D206801F0F0
:1020600051FD01203D3460726070A070E0702071FD
:102070006071A071E07120722070002010BD00001E
:102080002DE9F04F87B004466E49DFF8C081206823
:10209000DFF8B4B16D4D022601274FF0030A08F1B5
:1020A000100888421CD1286840F002002860286887
:1020B00000F002000190D8F8000040F00200C8F8DB
:1020C0000000D8F8000000F002000190CDF808A050
:1020D000039604970596069602A95846FFF74AF913
:1020E0005B49DFF86891206809F1140988421DD125
:1020F000286840F010002860286800F01000019067
:10210000D9F8000040F48030C9F80000D9F8000088
:1021100000F48030019060200290039604970596A9
:10212000CDF818A002A94B48FFF724F94A492068C6
:1021300088421DD1286840F001002860286800F01E
:1021400001000190D9F8000040F00100C9F800003A
:10215000D9F8000000F0010001904FF440600290B7
:10216000039604970596069702A93C48FFF702F9E3
:102170003B49206888421ED1286840F0040028604E
:10218000286800F004000190D9F8000040F0020037
:10219000C9F80000D9F8000000F0020001904FF4E7
:1021A00070700290039604970596CDF818A002A9C6
:1021B0002C48FFF7DFF82C49206888421DD1286899
:1021C00040F008002860286800F008000190D8F866
:1021D000000040F00400C8F80000D8F8000000F04B
:1021E000040001904FF47040029003960497059606
:1021F000069602A91D48FFF7BDF81D4920688842D0
:102200001DD1286840F002002860286800F0020014
:102210000190D8F8000040F04000C8F80000D8F85D
:10222000000000F040000190C8000290039604975F
:1022300005960920069002A95846FFF79BF807B0BB
:10224000BDE8F08F00040040000402403038024036
:102250000040014000100240000001400000024028
:10226000000401400008024000080040000C024049
:10227000001800407047000010B50446002909D03E
:1022800004290AD008290BD094F8410001280AD06B
:10229000012010BD94F83E00F8E794F83F00F5E700
:1022A00094F84000F2E70220A9B3042937D00829A6
:1022B00038D084F841000122206801F089FC1E49D1
:1022C00020681E4A884201D0904203D1436C43F4F7
:1022D000004343642068884213D0B0F1804F10D08F
:1022E000174988420DD0174988420AD016498842BA
:1022F00007D0904205D01549884202D0144988423F
:1023000013D1816801F00701062912D0016841F05C
:10231000010101600DE0FFE784F83E00CBE784F89F
:102320003F00C8E784F84000C5E7016841F00101BB
:102330000160002010BD00000000014000040140C9
:102340000004004000080040000C00400040014034
:102350000018004010B500682449884244D101F0BB
:1023600095F9234A0023012092F8671051B192F8A1
:102370006510491CC9B282F86510082902D302F819
:10238000673F50701B4A92F8671059B192F8651078
:10239000491CC9B282F86510082903D382F8673056
:1023A00082F86800D2F8D810491CC2F8D810322937
:1023B00001DD82F8DC00104A92F8671059B192F8FA
:1023C0006510491CC9B282F86510082903D382F848
:1023D000673082F86800D2F8D810491CC2F8D810CB
:1023E000642901DD82F8DC0010BD0000001000400F
:1023F000E0300020F4310020AC33002070477047FB
:1024000070470000F8B5044622681068D168536927
:1024100000F00F05002D08D1860606D58E0604D5DE
:102420002046BDE8F84001F008BD0026002D60D030
:1024300003F0010501F490772F435AD0C20705D06D
:10244000CA0503D5226C42F001022264420705D579
:10245000DA0703D0226C42F002022264820705D51B
:10246000DA0703D0226C42F004022264020707D587
:1024700001F020022A4303D0226C42F008022264B9
:10248000226C002A2BD0800604D5880602D520466F
:1024900001F0D3FC20684069C0F38010216C09076B
:1024A00000D408B3204601F0A3FC20684169490626
:1024B00016D5416921F040014161A06B60B14449EA
:1024C0000165A06BFEF77FFE002808D0A06B016DB0
:1024D00001B0BDE8F04008472046FFF791FFF8BD86
:1024E0002046FFF78DFFF8BD2046FFF789FF2664E1
:1024F000F8BD236B012B58D1C30656D5CB0654D556
:1025000010685068009050694FF0200340062ED5A7
:10251000A16B0868406880B20028E9D0A58D85428B
:10252000E6D9E085C869B0F5807F18D0D06820F47E
:102530008070D0602068416921F00101416120680C
:10254000416921F04001416184F83E3026632068F2
:10255000C16821F01001C160A06BFEF7EDFDA08DF8
:10256000E18D401A81B22046FFF749FFF8BDA08DEA
:10257000E18D401A81B2E08D0028F7D00029F5D016
:10258000D06820F49070D0602068426922F0010287
:10259000426184F83E3026632068C26822F010024F
:1025A000C2602046FFF72BFFF8BD020606D50A06DB
:1025B00004D52046BDE8F84001F03DBD4006F3D506
:1025C0004806F1D52046BDE8F84001F029BC0000DE
:1025D000E13D000870B50446002C04D094F83D009D
:1025E000002510B106E0012070BD84F83C50204663
:1025F00000F022F8242084F83D002068C16821F40E
:102600000051C160204601F071FC2068016921F48D
:10261000904101612068416921F02A0141612068EF
:10262000C16841F40051C1602564202084F83D0058
:1026300084F83E00002070BD30B587B000681E49A8
:10264000884237D11D48016841F0100101600068DF
:1026500000F01000019019481438016841F002019F
:102660000160016801F002010191016841F002017D
:102670000160006800F002000190402002900220FA
:102680000390012104910590072406940C4D02A9A2
:102690002846FEF76FFE80210291069402A9284683
:1026A000FEF768FE2520FEF7E4FF032211462520F1
:1026B000FEF7ECFF07B030BD001001404438024087
:1026C000000402402DE9F84F04460E461546984690
:1026D00094F83E00202802D00220BDE8F88F0EB307
:1026E00005B394F83C0001281ED0012084F83C007A
:1026F0004FF0000AC4F840A0222084F83E00C4F83D
:1027000030A0FEF73BFF8146A585E585A0684FF424
:102710008057B84201D1206940B13546002684F87F
:102720003CA028E00120D8E70220D6E70025F6E704
:102730004B46002220212046CDF8008001F0AAFC63
:1027400008B10320C9E725B1A068B8421BD038B151
:1027500008E020684068C0F3080026F8020B07E094
:10276000206980B12068406800F07F0028706D1CEF
:10277000E08D401EE085E08D0028D9D1202084F82E
:102780003E000020A9E7206840682870EFE790F835
:102790003E30202B01D00220704759B152B190F841
:1027A0003C30012B08D0012380F83C300023036328
:1027B00001F026BC012070470220704730B4006849
:1027C0001649884228D1164A5088010419D4114666
:1027D000440409784FF0000307D50A2901D053803B
:1027E0000FE040F4004050800BE00D2910D00D4D5B
:1027F000C0F30D042955401C80B25080C72800D971
:1028000053800848012230BC0549C830FFF7BFBFDC
:1028100040F480405080F4E730BC70470010014025
:1028200008000020100300202DE9F84304460E465E
:1028300015461F4694F83D00202802D00220BDE82E
:10284000F883C6B1BDB194F83C00012815D0012031
:1028500084F83C004FF00009C4F84090212084F82F
:102860003D00FEF78BFE8046A584E584A068B0F5A8
:10287000805F04D005E00120E1E70220DFE7206966
:1028800020B13546002684F83C9013E00025FAE795
:102890004346002280212046009701F0FBFB08B14F
:1028A0000320CCE79DB1216815F8010B4860E08C4E
:1028B000401EE084E08C0028EAD1434600224021FB
:1028C0002046009701F0E6FB40B10320B7E736F859
:1028D000020B2168C0F308004860E8E7202084F874
:1028E0003D000020ABE7704710B5124C94F868002B
:1028F00000281ED094F86600801E81B2601C00F093
:1029000091F994F86610621E635C895C03EB012107
:1029100089B2884209D1617894F8D500814204D106
:10292000A178032901D100F071F8002004F8660FA6
:10293000A07010BDAC33002010B5124C94F86800A4
:1029400000281ED094F86600801E81B2601C00F042
:1029500021FA94F86610621E635C895C03EB012126
:1029600089B2884209D1607894F8D510884204D1A0
:10297000A078032801D100F0B1F8002004F8660F18
:10298000A07010BDF4310020FEE7000010B5FEF786
:1029900037FE00F05FFE0723022208214FF4A870E3
:1029A00007F0ECFFA82004F08DFA4FF4E13008F0B6
:1029B00081F805F09FFF05F03FFC42F2CF010920AE
:1029C00004F00AFA04F0D2F904F01AFA05F020FB38
:1029D00000F0ACFB07F002F800F03AF900F0E2FF7B
:1029E00000F0EEF94FF4FA71042005F0D7FB04492A
:1029F00068200880BDE8104002A001F09BBC0000E8
:102A00008C0900204552524F52000000F0B5184B7F
:102A10000125A3F1100459791A79012806D12170F2
:102A2000627041EA0226268183F8DD50022808D12F
:102A300021706270A678E77846EA0726668183F8F7
:102A4000DD50032808D1217062702679677946EA43
:102A50000726A68183F8DD50042808D12170627012
:102A6000A079E17940EA0120E08183F8DD50F0BDF2
:102A7000AC3300202DE9F041164D28722870032058
:102A80006870080AA870E970100A28716A71062136
:102A9000284600F0C7F8010AA971E871CD3D01226E
:102AA0000D4F160331463846FEF75BFD002428190A
:102AB000CD30012100F0D8F8641C082CF7DB00228F
:102AC00031463846FEF74DFD012085F8D600BDE8B9
:102AD000F0810000793400200014024070B500211C
:102AE0000A4BDD7800200A4E09E01A185479127951
:102AF00004EB02220C46491C26F81420801CA84234
:102B0000F3DB012083F8DD0070BD0000F43100200C
:102B10002201002010B5064C0621601C00F03AF995
:102B2000217AE27901EB0221012084F8DD0010BD59
:102B3000F43100202DE9F04186B08046002534496B
:102B4000086840F020000860086800F0200000904D
:102B5000086840F008000860086800F0080000906D
:102B6000086840F008000860086800F0080000905D
:102B700027491031086840F400300860086800F404
:102B80000030009020200190022402940126039638
:102B90000494072005901F4F01A93846FEF7EAFB71
:102BA0004020019001A93846FEF7E4FBE7020197B7
:102BB000029603960494184E01A93046FEF7DAFBFC
:102BC000174C16482060C4F80480A560E5602561B4
:102BD000A5610C2060612046FFF7FCFC2068C168FD
:102BE00021F04001C1602068C16841F02001C1604E
:102BF0002620FEF73EFD032211462620FEF746FD65
:102C0000002239463046FEF7ACFC06B0BDE8F08144
:102C100030380240000C02400014024000440040E2
:102C20005833002070B5FF22FF23084D05F580764C
:102C300005E010F8014B54402A5D5A40335D491EAF
:102C400089B2F6D243EA022070BD00006EC30008CC
:102C500010B54FF4E130FFF76DFF0249002081F815
:102C6000670010BDAC3300202DE9F04107460E4649
:102C700001220A4D140321462846FEF772FC4FF448
:102C80007A73324639460648FFF7CEFD214628467C
:102C9000BDE8F0410022FEF764BC000000140240D1
:102CA000583300202DE9F04186B080460025334995
:102CB000086840F020000860086800F020000090DC
:102CC000086840F004000860086800F00400009004
:102CD000086840F008000860086800F008000090EC
:102CE00026491031086840F480100860086800F434
:102CF000801000908814019002240294012603960B
:102D000004940820059001A91D48FEF733FB042711
:102D1000019701A91B48FEF72DFB01970296039628
:102D20000494194E01A93046FEF724FB184C1748AD
:102D30002060C4F80480A560E5602561A5610C20D1
:102D400060612046FFF746FC2068C16821F0400121
:102D5000C1602068C16841F02001C1603520FEF7E4
:102D600088FC032211463520FEF790FC0022042146
:102D70003046FEF7F6FB06B0BDE8F0813038024081
:102D800000080240000C02400014024000500040C5
:102D9000B031002070B5FF22FF23084D05F5807685
:102DA00005E010F8014B54402A5D5A40335D491E3E
:102DB00089B2F6D243EA022070BD00006EC100085D
:102DC00010B54FF4E130FFF76DFF0249002081F8A4
:102DD000670010BDF431002070B506460D460A4C60
:102DE000012204212046FEF7BCFB4FF47A732A46E9
:102DF00031460648FFF718FD2046BDE87040002226
:102E00000421FEF7AEBB000000140240B0310020E8
:102E100070B5154D2872287003206870080AA870D4
:102E2000E970100A28716A7106212846FFF7B2FF7F
:102E3000010AA971E871CD3D0C4E012204213046F2
:102E4000FEF78FFB00242819CD300121FFF7C4FFC6
:102E5000641C082CF7DB002204213046FEF781FBBE
:102E6000012085F8D60070BDC13200200014024058
:102E700070B5154D287228706970100AA870EA7034
:102E8000180A28716B7106212846FFF783FF010A93
:102E9000A971E871CD3D0D4E012204213046FEF7A7
:102EA00060FB00242819CD300121FFF795FF641C39
:102EB000A4B2082CF6D3002204213046FEF751FBC1
:102EC000012085F8D60070BDC132002000140240F8
:102ED00070B50B4C002565600A48016821F00301BC
:102EE0000160016841F0010101602560022003F0EA
:102EF000F5FF01206060022003F0F0FF656070BD07
:102F0000808242420014024010B586B00C4801682D
:102F100041F020010160006800F0200000900320D3
:102F200001900124029403940220049001A9054811
:102F3000FEF720FA04480460446006B010BD0000AB
:102F400030380240001402408082424270B50B4C7F
:102F5000002565600A48016821F0030101600168ED
:102F600041F00101016001262660022003F0B6FF56
:102F70006660022003F0B2FF656070BD808242424D
:102F8000001402402DE9F0478146002415480168ED
:102F900021F003010160016801600025124E002745
:102FA0004FF00108C6F88472022003F097FFC6F8BC
:102FB00084826006040ED6F8000208B1641CE4B2F4
:102FC000012003F08BFF6D1CEDB2082DEAD3B9F19F
:102FD000000F04D0FFF77CFF2046BDE8F087FFF725
:102FE000B5FFF9E700140240008042422DE9F041AC
:102FF00005461448016821F003010160016841F0B1
:1030000001010160104E4FF00008C6F884820024D0
:103010000127E809C6F880026806050E022003F0C1
:103020005DFFC6F88472022003F058FFC6F8848260
:10303000022003F053FF641CE4B2082CE9D3BDE87E
:10304000F0810000001402400080424270B50B483D
:10305000016821F003010160016841F00101016094
:10306000074C012020606060042003F037FF00253A
:103070002560042003F032FF656070BD001402403B
:103080008082424210B50C48016821F003010160C2
:10309000016841F001010160084C0020606020607F
:1030A000042003F01BFF012060602060BDE8104099
:1030B000042003F013BF000000140240808242424B
:1030C00070B500241148016821F003010160016816
:1030D00001600F4D0126C5F88062012003F0FEFE5D
:1030E000C5F88462012003F0F9FE07E0641CE4B235
:1030F000FA2C03D9FFF7C6FF012070BDD5F80002F6
:103100000028F3D1C5F8840270BD0000001402400D
:103110000080424210B505F097F9BDE81040042147
:103120000148FEF716BA00000018024010B5FFF77C
:10313000EBFE80216B2000F0C1F8642003F0C8FE94
:1031400000216B2000F0BAF8032000F084F8002082
:1031500000F07CF8322000F09BF80021382000F0CD
:10316000ADF800216A2000F0A9F80021232000F02A
:10317000A5F88021372000F0A1F8752000F011F8A3
:10318000682801D0012010BD01216B2000F096F8C5
:1031900000216C2000F092F8322000F079F8002035
:1031A00010BD10B50446FFF751FFD020FFF71EFFFA
:1031B000FFF786FF2046FFF719FFFFF781FFFFF7B4
:1031C00045FFD120FFF712FFFFF77AFF0020FFF73E
:1031D000D9FE0446FFF756FF204610BD2DE9F04109
:1031E00006460F4615461C46FFF730FF7006000ED8
:1031F000FFF7FCFEFFF764FF20B1FFF743FF01205C
:10320000BDE8F0813846FFF7F1FEFFF759FFFFF701
:103210001DFF012000EB4600C0B2FFF7E7FEFFF7FD
:103220004FFF08E0012D0CD00120FFF7ABFE20700E
:103230006D1EEDB2641C002DF4D1FFF723FF0020BA
:10324000DEE70020FFF79EFE2070F1E7C006010ECA
:103250001C2000F033B8C006010E1B2000F02EB871
:10326000BC2801D3012110E0622801D302210CE027
:103270002A2801D3032108E0142801D3042104E003
:103280000A2801D3052100E006211A2000F016B813
:1032900010B504464FF47A70844200D90446042CD9
:1032A00000D20424B0FBF4F0401EC1B2192000F09B
:1032B00005F86008BDE81040FFF7D2BF70B50546BD
:1032C0000C46FFF7C3FED020FFF790FEFFF7F8FE95
:1032D00018B1FFF7D7FE012070BD2846FFF786FE24
:1032E000FFF7EEFE2046FFF781FEFFF7E9FE18B17B
:1032F000FFF7C8FE012070BDFFF7C4FE002070BDBF
:103300002DE9F04104460F4616461D46FFF79EFE86
:103310006006000EFFF76AFEFFF7D2FE20B1FFF74E
:10332000B1FE0120BDE8F0813846FFF75FFEFFF7F0
:10333000C7FE00240BE0285DFFF758FEFFF7C0FE34
:1033400018B1FFF79FFE0120ECE7641CE4B2B44221
:10335000F1D3FFF797FE0020E4E7FEE700F0ECB9B9
:1033600010B50C4C94F8DC00002812D00B22002180
:103370001120FFF74DFD94F8D600002809D0002059
:1033800044F8D80F207104F8020CBDE81040FFF794
:10339000D3BA10BDF431002010B5022391220621CA
:1033A0001120FFF765FD084890F8D610002909D0D4
:1033B000002140F8D81F017100F8021CBDE8104040
:1033C000FFF7A8BB10BD0000F431002030B587B076
:1033D00004460D461C216846FCF75DFF124A114861
:1033E0001060556000259560D4601046FEF722FEFF
:1033F00060200090019502200290082269460A4848
:10340000FEF7AFFD08210848FEF736FF0C2269469B
:103410000548FEF7A6FD0C210348FEF72DFF07B077
:1034200030BD0000000400406C05002030B587B0BE
:1034300004460D461C216846FCF72DFF1B4A1A481E
:103440001060556000259560D4601046FEF7F2FDCF
:1034500060200090019502200290082269461348DE
:10346000FEF77FFD08211148FEF706FF0C22694692
:103470000E48FEF776FD0C210C48FEF7FDFE0022FB
:1034800069460A48FEF76DFD00210848FEF7F4FE84
:10349000042269460548FEF764FD04210348FEF74F
:1034A000EBFE07B030BD0000000800408C06002095
:1034B00030B587B004460D461C216846FCF7EBFE8C
:1034C000124A11481060556000259560D46010467E
:1034D000FEF7B0FD602000900195022002900822C6
:1034E00069460A48FEF73DFD08210848FEF7C4FE7C
:1034F0000C2269460548FEF734FD0C210348FEF70F
:10350000BBFE07B030BD000000000140FC050020FC
:1035100030B587B004460D461C216846FCF7BBFE5B
:103520001B4A1A481060556000259560D46010460B
:10353000FEF780FD60200090019502200290082295
:1035400069461348FEF70DFD08211148FEF794FE69
:103550000C2269460E48FEF704FD0C210C48FEF7CC
:103560008BFE002269460A48FEF7FBFC0021084852
:10357000FEF782FE042269460548FEF7F2FC0421AC
:103580000348FEF779FE07B030BD0000000401409B
:103590004406002030B587B004460D461C2168461D
:1035A000FCF779FE124A11481060556000259560BD
:1035B000D4601046FEF73EFD602000900195022089
:1035C0000290002269460A48FEF7CBFC0021084819
:1035D000FEF752FE042269460548FEF7C2FC0421AC
:1035E0000348FEF749FE07B030BD0000004001402F
:1035F000B405002030B587B004460D461C2168464E
:10360000FCF749FE124A114810605560002595608C
:10361000D4601046FEF70EFD602000900195022058
:103620000290002269460A48FEF79BFC00210848E8
:10363000FEF722FE042269460548FEF792FC0421AB
:103640000348FEF719FE07B030BD00000018004027
:10365000D406002010B529216320FFF7B7FE2921E9
:10366000C720FFF797FF2921C720FFF721FF292156
:10367000C720FFF74DFF29216320FFF7D7FE29213F
:10368000BDE810406320FFF7B5BF7047F0B50020DC
:103690000E4C00260127211F0D7814E000EB40019D
:1036A00004EB8102137963B934F821305B1C9BB2BF
:1036B00024F82130B2F802C0634502D324F8216017
:1036C0001771401CC0B2A842E8D3F0BD68000020CA
:1036D000FFF75CF900240B4E0027A6F1040804F064
:1036E00057FD04EB440006EB8005287910B1A8686B
:1036F00080472F71641C98F80000E4B28442EED336
:103700000024ECE7680000207047704770B5FF2286
:10371000FF23084D05F5807605E010F8014B544075
:103720002A5D5A40335D491E89B2F6D243EA02202F
:1037300070BD00006EBF000810B51A4C94F8680008
:1037400000282ED094F86600801E81B2601CFFF71E
:10375000DDFF94F86610621E635C895C03EB012157
:1037600089B2884219D160782178884215D1A07831
:10377000112812D2DFE800F01111110911110C11FA
:1037800011111111111111110F0000F05FF804E077
:1037900000F0BAF801E000F007F8002004F8660F26
:1037A000A07010BDE03000202DE9F047244D2B79AA
:1037B000EC7803EB042082B2AE796F7906EB072038
:1037C0001FFA80FC0020DFF87C800CE005EB400154
:1037D00091F80990097A09EB012102EB000928F818
:1037E0001910401C80B26045F0D3513515F8500CCB
:1037F000287615F84F0C6876AC76EB762F776E77D7
:103800000F4806216930FFF781FF010AA977E877A1
:10381000513D0D4E012211463046FDF7A2FE002417
:1038200028196930012100F0CBF8641CA4B2082CDF
:10383000F6D33046BDE8F04700220121FDF791BEE6
:10384000E03000208C090020001802402DE9F041F2
:103850002A4D2879E97800EB012086B2A8796979A8
:1038600000EB012083B2287885F8690029460320FF
:1038700081F86A005800032481F86B000020204F73
:1038800012E03118A44637F81120641CE1B20CEBA9
:1038900005044FEA122884F869804C1C2944E4B2DC
:1038A00081F86920401CC0B29842EAD313482146EF
:1038B0006930FFF72BFF020A611C6319C9B283F854
:1038C00069204A1C2944D6B281F869000D4F0122B3
:1038D00011463846FDF745FE002406E028196930F8
:1038E000012100F06DF8641CE4B2B442F6D338460E
:1038F000BDE8F04100220121FDF733BEE030002099
:103900008C090020001802402DE9F041224D287951
:10391000E97800EB012082B2A879697900EB0120F7
:103920001E4921F81200297885F869102B460621D6
:1039300083F86A102C46130A84F86B30234683F808
:103940006C20020A83F86D201A4682F86E0002F19C
:103950006900FFF7DBFE2246010A82F86F1011466C
:10396000082681F870000E4F012211463846FDF7F7
:10397000F8FD002406E028196930012100F020F844
:10398000641CA4B2B442F6D33846BDE8F04100222C
:103990000121FDF7E6BD0000E03000208C09002089
:1039A0000018024010B54FF4165000F025F80348F7
:1039B00001210170002180F8671010BDE030002067
:1039C00070B506460D460A4C012211462046FDF709
:1039D000C8FD4FF47A732A4631460648FEF724FFA5
:1039E0002046BDE8704000220121FDF7BABD00006D
:1039F000001802409C3000202DE9F04186B080463E
:103A000000253448016841F040010160016801F07F
:103A100040010091016841F040010160016801F03E
:103A200040010091016841F040010160006800F030
:103A30004000009027481430016841F020010160E7
:103A4000006800F0200000904FF4804001900226B2
:103A50000296012403940496082005901E4F01A9A4
:103A60003846FDF787FC6002019001A93846FDF752
:103A700081FC019402940394049601A93846FDF751
:103A800079FC174C15482060C4F80480A560E560F7
:103A90002561A5610C2060612046FEF79BFD216831
:103AA000C86820F04000C8602168C86840F0200065
:103AB000C8604720FDF7DDFD022201214720FDF708
:103AC000E5FD002201213846FDF74BFD06B0BDE8BB
:103AD000F08100003038024000180240001401401C
:103AE0009C300020FDF784BD0248016841F470015C
:103AF0000160704788ED00E00148FEF77AB90000E8
:103B0000340700202DE9F0410268264D264E274F4C
:103B1000DFF89CC0274B4FF08048A84209D04045B1
:103B200007D0B04205D0B84203D0604501D09842DA
:103B300003D122F070044A682243A8421BD04045BA
:103B400019D0B04217D0B84215D0604513D0984272
:103B500011D0194CA0420ED0184CA0420BD0184CDA
:103B6000A04208D0174CA04205D0174CA04202D06A
:103B7000164CA04203D122F44074CA6822434C6917
:103B800022F08002224302608A68C2620A6882626E
:103B9000A84201D0984201D1096901630121416124
:103BA000BDE8F08100000140000400400008004032
:103BB000000C00400004014000400140004401406E
:103BC0000048014000180040001C00400020004058
:103BD00010B501F01F0101238B40046A9C4304626D
:103BE000036A8A401343036210BD0000F0B5026A05
:103BF00022F001020262026A4368846924F07004C0
:103C000024F003050C682C4322F002058A682A433D
:103C10000E4E0F4FB04201D0B84205D122F0080538
:103C2000CA682A4322F00402B04201D0B84207D148
:103C300023F4807323F400734D691D438B692B4378
:103C400043608461496841630262F0BD0000014045
:103C500000040140F0B5026A22F010020262036A19
:103C60004268846924F4E04424F440740D6844EA12
:103C7000052423F020038D6843EA0513104D114EEF
:103C8000A84201D0B04206D123F08003CF6843EAB6
:103C9000071323F04003A84201D0B04209D122F417
:103CA000806222F400624D6942EA85028D6942EA2F
:103CB000850242608461496881630362F0BD00004F
:103CC0000000014000040140F0B5026A22F4807255
:103CD0000262026A4368C46924F0700424F0030598
:103CE0000C682C4322F400728D6842EA0522104DC4
:103CF000104EA84201D0B04206D122F40062CF6833
:103D000042EA072222F48062A84201D0B04209D1DF
:103D100023F4805323F400534D6943EA05138D695E
:103D200043EA05134360C4614968C1630262F0BDA0
:103D3000000001400004014030B5026A22F48052C4
:103D40000262046A4268C36923F4E04323F44073C7
:103D50000D6843EA052324F400548D6844EA0534D1
:103D6000084DA84202D0084DA84204D122F4804256
:103D70004D6942EA85124260C36149680164046288
:103D800030BD0000000001400004014008B51348A8
:103D900000680068C04380061ED44FF47A73012285
:103DA00069460E48FEF78EFC0C48443090F86810C7
:103DB000012911D090F866109DF800304A1C01448A
:103DC00080F866204B70002180F8651090F866102E
:103DD000012901D180F8671008BD0000B031002032
:103DE00010B5806B0021C185C184FEF709FB10BDB1
:103DF0000168CA6822F49072CA6001684A6922F0B8
:103E000001024A61016B012904D10168CA6822F0EC
:103E10001002CA60202180F83E1000210163704723
:103E200010B50168CA6822F04002CA60202180F8FB
:103E30003D10FEF758FD002010BD10B5044694F863
:103E40003E00222801D0022010BDA1684FF480520C
:103E5000914201D1206920B1A06A91421DD051B197
:103E60000BE0A06A21684968C1F308010180A06ADB
:103E7000801CA06209E0216979B12168496801F0DC
:103E80007F010170A06A401CA062E08D401E00040A
:103E9000000CE08505D0002010BD21684968017044
:103EA000F0E72068C16821F02001C1602068C16886
:103EB00021F48071C1602068416921F001014161F4
:103EC000202084F83E00206B012805D02046FEF714
:103ED00075FC0020206310BD2068C16821F010012E
:103EE000C160A18D2046FEF78AFAF2E72DE9F04184
:103EF000044620680169E26821F4405111430161E0
:103F0000A1682069E26901436069104301432068A8
:103F1000C26849F20C639A430A43C260206841694F
:103F2000A26921F4407111434161334920688842FC
:103F300002D03249884202D1FDF796FC01E0FDF73C
:103F400083FCE1690023192764253226B1F5004F6F
:103F500028D061688B0F8A00A0FB0701FCF732F9BB
:103F60000146B0FBF5F07A42504301EB800006EBCE
:103F70000010B0FBF5F000F0F002B1FBF5F002EB41
:103F80000012B1FBF5F07B42584301EB800006EBD9
:103F90000010B0FBF5F0216800F00F0010448860BD
:103FA000BDE8F08161684A18A0FB07015B41FCF79E
:103FB00009F90146B0FBF5F00201B1FBF5F06FF035
:103FC0001803584301EB800006EBC000B0FBF5F08E
:103FD00000F0F80002EB4002B1FBF5F0584301EBB2
:103FE000800006EBC000B0FBF5F0216800F0070090
:103FF00010448860D4E70000001001400014014024
:1040000081628285C28500210164222280F83E20DF
:1040100080F83C100168CA6842F48072CA60016886
:104020004A6942F001024A610068C16841F020011A
:10403000C1600020704790F83D10212901D0022076
:1040400070478168B1F5805F01D1016961B1016A92
:104050004A1C0262026809785160C18C491E090439
:10406000090CC1840AD013E0016A02680988C1F30F
:1040700008015160016A891C0162EEE70168CA68A3
:1040800022F08002CA600068C16841F04001C1604E
:10409000002070472DE9F04104460E461746984629
:1040A000069D1DE0681C1BD02DB1FDF767FAA0EB43
:1040B0000800A84214D92068C16821F4D071C160F9
:1040C0002068416921F001014161202084F83D0010
:1040D00084F83E00002084F83C000320BDE8F08115
:1040E0002068006836EA000004D00020B842D9D029
:1040F0000020F3E70120F9E70148FEF783B900004B
:10410000D803002008B5134800680068C043800643
:104110001ED44FF47A73012269460E48FEF7D2FA94
:104120000C48543090F86810012911D090F86610AE
:104130009DF800304A1C014480F866204B70002135
:1041400080F8651090F86610012901D180F8671099
:1041500008BD00005833002008B513480068006807
:10416000C04380061ED44FF47A73012269460E487C
:10417000FEF7A8FA0C48443090F86810012911D0D5
:1041800090F866109DF800304A1C014480F86620C3
:104190004B70002180F8651090F86610012901D15C
:1041A00080F8671008BD00009C3000202DE9F04326
:1041B0002DED048B81B00025DFF82081484CD8F824
:1041C0000800002803DDA0F5FA70206005E003DA9E
:1041D00000F5FA70206000E025604FF019012068BA
:1041E00006F068FB2060D8F80C00002803DDA0F57D
:1041F000FA70606005E003DA00F5FA70606000E0D4
:1042000065604FF01901606806F06AFB6060042188
:10421000217261720221A1720146A268206806F033
:1042200065FC304D9FED308B95ED160B51EC180B66
:1042300053EC102BFCF7E8F89FED2D9B53EC192B5A
:10424000FCF7E8F8FCF704FA86B295ED180B51EC90
:10425000180B53EC102BFCF7D7F853EC192BFCF789
:10426000D9F8FCF7F5F987B295ED1A0B51EC180B5C
:1042700053EC102BFCF7C8F89FED1F9B53EC192B48
:10428000FCF7C8F8FCF7E4F91FFA80F995ED1C0B70
:1042900051EC180B53EC102BFCF7B6F853EC192B20
:1042A000FCF7B8F8FCF7D4F980B215490A68D66370
:1042B00009680F6413490A68C2F834900968886372
:1042C000D8F81400009006CCD8F810300E4800F052
:1042D00031F801B0BDEC048BBDE8F0831809002073
:1042E0007C070020D8320020000000000000F03FD2
:1042F000000000000000594000000000000069407C
:104300006C050020B405002048C80008FEE70346FD
:104310000846984202DB904200DC002070470346CA
:104320000846984201DA184670479042FCDD104674
:10433000704700000FB4054B10B503A9044A02985A
:1043400002F090F810BC5DF814FB0000C57900087D
:104350000C00002003B401984100009850EAC120ED
:1043600018BF04204A0D18BF40F0010040F2FF7250
:10437000B2EB515F08BF40F00200012808BF0520E2
:1043800002B070474100080218BF04200A0E18BF8F
:1043900040F001004FF07F4232EA010108BF40F0D7
:1043A0000200012808BF052070470907090E0028F0
:1043B00004DB00F1E02080F80014704700F00F00EB
:1043C00000F1E02080F8141D70470000000000009C
:1043D00070B5C1482DED020B2DED0E8B82B0119DF5
:1043E00025F000449FEDBEDB9FEDBFEB84423EDB3A
:1043F000A4F140511098A1F17F6108430FD0BC484F
:10440000844202DC28D1109830B39DED100B02B02D
:10441000BDEC0E8B02B0BDE8704001F0B5BF9DED64
:10442000100B53EC1D2B51EC100BFBF7F3FF9DED24
:10443000100B41EC180B53EC1E2B51EC100BFBF73F
:10444000E9FF53EC182BFBF73EFF41EC100B02B0D9
:10445000BDEC0E8B02B070BD012001F0FDFF02B07B
:10446000BDEC0E8B02B0BDE8704001F0A1BFA148C9
:104470009FEDA18B844256DA9DED100BB4F1795F6C
:104480000ADA51EC100BFFF765FF042808BF01F0B2
:10449000AFFF9DED100BDAE753EC102B51EC100B36
:1044A000FBF7B8FF41EC190B95480621B0EE490A1D
:1044B000F0EE690A784401F02BFD53EC192B51EC16
:1044C000100BFBF7A7FF41EC1A0B8E48B0EE490A20
:1044D000F0EE690A0421784401F01AFD53EC192B1F
:1044E00051EC100BFBF796FF53EC182BFBF7EBFE90
:1044F00041EC100B51EC1A0B53EC102BFBF7FCFFAB
:10450000CDE900019DED000B53EC102B9DED100B40
:1045100051EC100BFBF77EFF9DED101B53EC112BA4
:10452000FBF7D1FED2E09DED100B51EC100B03F028
:104530003DFA53EC182BFBF76AFF9FED730BCDE9A7
:10454000000153EC102B9DED000B51EC100BFBF711
:1045500061FF41EC190B6E480621B0EE490AF0EEFE
:10456000690A784401F0D4FC53EC192B51EC100B80
:10457000FBF750FF41EC1B0B6648B0EE490AF0EE2A
:10458000690A0421784401F0C3FC53EC192B51EC67
:10459000100BFBF73FFF53EC182BFBF794FE41EC9D
:1045A0001C0B51EC190B06F0B1F941EC180B5A48F1
:1045B0009FED5BABA04222DC53EC1C2B51EC1B0BA0
:1045C000FBF79AFFCDE900019DED000B51EC180BB4
:1045D00053EC102BFBF71EFF53EC182BFBF773FE6D
:1045E00053EC1A2BFBF716FF53EC1D2BFBF70CFFBC
:1045F00053EC1E2BFBF70BFF41EC100B5FE08DED36
:10460000008B002000909DED000B51EC180B53EC3B
:10461000102BFBF758FE9DED000B41EC1E0B53ECED
:10462000102B51EC100BFBF7F5FE53EC192BFBF79D
:10463000EEFE53EC1E2BFBF75FFF41EC190B53EC26
:104640001C2B51EC1B0BFBF757FF41EC1B0B53ECE6
:104650001A2B51EC190BFBF7DDFE53EC1D2BFBF76E
:10466000D6FE41EC190B53EC1A2B51EC180BFBF74F
:10467000D1FE53EC1B2BFBF7CDFE53EC192BFBF7B4
:10468000C3FE9DED000B41EC180B53EC1A2B51ECC3
:10469000100BFBF7BFFE9FED249B53EC192BFBF790
:1046A000B6FE41EC100B51EC180B53EC102BFBF742
:1046B000ABFE53EC192BFBF7AAFE41EC100B002DBF
:1046C0003FF7C5AE51EC100B81F0004141EC100BEF
:1046D000BDE60000000000000000F03F0000000008
:1046E000075C143326A6913C182D4454FB21F93F56
:1046F0000000F07F0000E03F000000000000F03FFD
:10470000C0800000CE800000000000000000E03FFC
:1047100012800000208000003333EF3F00000000D3
:104720000000000000000040182D4454FB21E93F28
:1047300070B59B482DED020B2DED068B079D25F0E6
:104740000044A04218DC9748844202DC0AD1069853
:1047500040B19DED060BBDEC068B02B0BDE870408C
:1047600001F012BE002DCCBF9FED8F0B9FED900B83
:10477000BDEC068B02B070BD8F48A04215DD8F489E
:10478000A042D8BF4FF0FF3458DD9DED060B51EC31
:10479000100BFFF7DFFD042808BF01F029FE9DED97
:1047A000060BBDEC068B02B070BD9DED060B51EC07
:1047B000100B03F0FBF8CDE9060181489FED828BD9
:1047C000A0423CDD8248A0421FDD00249FED82AB69
:1047D0009DED060B53EC1A2B51EC100BFBF773FD00
:1047E0009DED060B41EC190B53EC1A2B51EC100B01
:1047F000FBF710FE53EC182BFBF706FE53EC192BBE
:10480000FBF77AFECDE9060149E09DED060B012498
:1048100053EC182B51EC100BFBF755FD9DED060BDF
:1048200041EC190B53EC182B51EC100BFBF7ECFD82
:1048300053EC192BFBF760FECDE906012FE0684829
:10484000A0421FDD02249FED689B9DED060B53ECFB
:10485000192B51EC100BFBF7DDFD53EC182BFBF77C
:1048600032FD9DED060B41EC180B53EC192B51EC6E
:10487000100BFBF7C9FD53EC182BFBF73DFECDE900
:1048800006010CE09DED060B032453EC102B9FED6D
:10489000580B51EC100BFBF72FFECDE906019DEDF7
:1048A000060B53EC102B51EC100BFBF7B3FD41EC56
:1048B000180B53EC182BFBF7ADFD41EC190B4E48D0
:1048C0000621B0EE490AF0EE690A784401F020FBB7
:1048D00053EC182B51EC100BFBF79CFD41EC180B23
:1048E0004648B0EE490AF0EE690A0521784401F025
:1048F0000FFB53EC192B51EC100BFBF78BFD41EC2C
:10490000100B51EC180B53EC102B002C0EDAFBF7AC
:10491000DAFC9DED061B53EC112BFBF77BFD9DEDA7
:10492000061B53EC112BFBF772FD35E0FBF7CBFCBC
:104930009DED061B53EC112BFBF76CFD41EC100BAE
:104940002F48784400EBC40090ED001B51EC100B95
:1049500053EC112BFBF758FD9DED061B53EC112B6F
:10496000FBF752FD41EC100B2648784400EBC400E5
:1049700090ED001B51EC100B53EC112BFBF747FD96
:1049800041EC100B002DA2BFBDEC068B02B070BD38
:1049900051EC100B81F0004141EC100B01E70000DD
:1049A000000010440000F07F182D4454FB21F93F13
:1049B000182D4454FB21F9BF0000DC3F0000203ECD
:1049C0000000F33F00000000000000000000F03F86
:1049D0000000E63F00000000000000000000004072
:1049E0000080034000000000000000000000F83FCD
:1049F000000000000000F0BF627D0000187D000094
:104A0000A27C00005A7C000070B56F4E2DED040BA7
:104A10002DED048B82B0DDF824C0DDE907235C4274
:104A20002CF000411C4341EAD474069D22F0004062
:104A3000B44205D86C422C4340EAD474B4420BD93A
:104A40009DED081B9DED060B02B0BDEC048B04B080
:104A5000BDE8704001F0A2BCACF14054A4F17F6409
:104A60001C430BD0022404EAAC7444EAD27405431C
:104A70009FED578B9FED582B07D015E09DED060B52
:104A800051EC100B02F06AF942E0002C11BF012C2E
:104A90009DED060B02B0BDEC048B04BF04B070BDED
:104AA000022C38D0032C3BD00B439FED4D1B9FEDC8
:104AB0004E0B0AD0B14218D1B04209D121F0804149
:104AC00020F08040099107900FE0002A15DA10E0ED
:104AD000474B7B44002C08BF93ED000B0DD0012CFD
:104AE00010D0022C17D0032C1AD0B0421DD1002AAE
:104AF00003DAB0EE410AF0EE610A02B0BDEC048BBD
:104B000004B070BD93ED000B51EC100B81F000412F
:104B100041EC100BF1E7B0EE480AF0EE680AECE762
:104B2000B0EE420AF0EE620AE7E7401A00159FED88
:104B3000329B3C28C8BF8DED000B17DCBCF1000F89
:104B4000BCBF10F13C0F8DED009B0FDB9DED080B02
:104B500053EC102B9DED060B51EC100BFBF7CCFC2E
:104B600002F024FF02F0FAF8CDE90001B4B1012C03
:104B700010D0022C9FED220B53EC102B9DED000B5F
:104B800051EC100B19D0FBF73FFC53EC182BFBF743
:104B90003BFCBDE7019880F0004001909DED000BCB
:104BA00053EC192B51EC100BFBF77EFD04BF0220D8
:104BB00001F052FC9DED000B9FE7FBF725FC53EC49
:104BC000182BFBF724FCA3E70000F07F0000000097
:104BD000182D4454FB210940182D4454FB2109C0D1
:104BE000182D4454FB21F9BF182D4454FB21F93FE3
:104BF000427C0000000000000000000000000000F7
:104C0000075C143326A6A13C10B510EE104A4FF0F5
:104C100019406849002200EB44002DED028B8842C8
:104C200057D8DFED650A14F0004F60EE200A14BF7C
:104C3000BEEE001AB6EE001A71EE200AFDEEE00A92
:104C400010EE900A00EE900AF8EEE00A9FED5B1A73
:104C500000EEC10A9FED5A1A00EEC10ADFED590AB3
:104C60009FED591A00EE201ADFED580A40EE010AB6
:104C70009FED571A574B00F0030100EE201A21EE6A
:104C8000000A7B4403EB8103D3ED000A524B7B44C3
:104C900003EB810393ED001A504B41EE000A7B4475
:104CA00003EB8101801091ED000A70EE800AEABBEF
:104CB00000EE100AB8EEC01ADFED491A9FED490A5E
:104CC000BDEC028B01EE210ABCEEC00A20EE200AE8
:104CD00010BD4FF0FF40A0431BD04FF0CE40B0EBD3
:104CE000440F82BFB7EE000ABDEC028B10BD3E48F8
:104CF000B0EB440F28BF012293D2022001F0ACFB9D
:104D000014F0004F15D0BDEC028BBDE8104001F04F
:104D10008BBB14F5000F02BF9FED340ABDEC028B74
:104D200010BDBDEC028BBDE8104000E007E001F0D3
:104D30006FBBBDEC028BBDE8104001F06DBB00EB1A
:104D4000D07359104FF07E5202EBC15100EE101A91
:104D5000A0EB630002EBC05060EE200A00EE100AE8
:104D600020EE208A18EE100A88B118EE100AB0F171
:104D7000FF4F15D018EE100AFFF704FB042808BFF8
:104D800001F052FBB0EE480ABDEC028B10BD0220D0
:104D900001F062FBBDEC028BBDE8104001F044BBAA
:104DA000022001F059FBBDEC028BBDE8104001F080
:104DB00033BB00000000501E3BAAB8400070313EDB
:104DC000F4FD053712BB2A3D12BB2A3EFFFFFF3E12
:104DD000FFFF7F3FEA790000EE790000BE79000016
:104DE0000000004B00007E4E0000A0850000000087
:104DF0002DED020B019820F0004001909DED000B7D
:104E000002B07047000000002DE9F04D2DED040BBD
:104E10002DED0E8B96B0DDE92550279CDDF890A096
:104E200025F0004624F00048BAF1000F14BF01211C
:104E3000002101EB4502FC4953184A1093422AD342
:104E4000002814BF0123002303EB44030B44F7495C
:104E50008B4220D358EA00019FEDF59B76D0DFF816
:104E6000D8B35D4503D1BAF1000F05D188E0BAF19E
:104E7000000F08BF002100D0012101EB450111F511
:104E8000001F08D8002814BF0121002101EB4401B4
:104E900011F5001F0BD99DED261B9DED240B16B0BF
:104EA000BDEC0E8B04B0BDE8F04D01F077BA0027E1
:104EB000002DBCBFE149884521DAE1498845A8BFFA
:104EC00002271CDAC3451ADCDE4901EB28511429FC
:104ED00008DDC1F1340220FA02F101FA02F2824245
:104EE0000DD108E058B9C1F1140228FA02F101FA13
:104EF00002F2424503D101F00101C1F1020756EA75
:104F00000A0124D1002C22DA002D18BF022F01D073
:104F1000012F0AD0022001F09FFA16B0BDEC0E8BD3
:104F200004B0BDE8F04D01F017BA022001F094FA88
:104F300001F012FA51EC100B81F0004141EC100B22
:104F400016B0BDEC0E8B04B0BDE8F08D18E09FEDFF
:104F5000BEAB9FEDBF8B002871D1B848804522D1F0
:104F600005F1804010F5801008BFBAF1000F07D09E
:104F7000B3450ADC002CA8BF9DED260BE0DA0DE05E
:104F8000B0EE490AF0EE690ADAE7002C06DA9DED88
:104F9000260B51EC100B81F000416FE0AE487844D5
:104FA00090ED000BCCE7D8454DD1002C48DA2EB15E
:104FB00086423AD1BAF1000F42D126E0BAF1000F91
:104FC00013D0022001F048FA01F002FA8DED020B35
:104FD0009DED240B8DED000B10EE900A039961F30B
:104FE0001E0003909DED020BAAE78DED02AB9DED37
:104FF000240B1AEE901A10EE900A8DED000B61F35F
:105000001E0003909DED020B9AE78DED028B9DED46
:10501000240B18EE901A10EE900A8DED000B61F340
:105020001E0003909DED020B8AE709DA9DED240B2B
:1050300051EC190B53EC102BFBF75EFA1EE020E04D
:105040009DED240B7CE786421BDAB4F1804F0DD036
:10505000A4F10050B0F1FF5013D1002D11DB9DEDF4
:10506000240B51EC100B05F051FC07E09DED240BD7
:1050700053EC102B51EC100B00F0C2BC41EC100BA8
:105080005EE79DED240B51EC100B02F08FFCBAF1A2
:10509000000FCDE90E0142D19FED710B46B3A6F191
:1050A000E040B0F17F600CD05E4538D1002D00DAD1
:1050B000A7B3022F0CBF01204FF0FF30FBF78BFA94
:1050C000DCE7002D01DD002C0DDA002D01DD002CC8
:1050D0001FDB002D16DA002C14DB012F08BF9FED1B
:1050E000620B3FF42DAFB0EE4A0AF0EE6A0A27E7F2
:1050F000022F18BF002D0CD0012F0AD1002DFFF672
:105100001FAF06E0002DB8BF002C08DA012F3FF4D6
:1051100017AFB0EE480AF0EE680A11E71BE0012075
:1051200000EBE57050EA070115D0791EB0EE498A10
:10513000F0EE698A084308BF9FED4D8B4E4800256D
:10514000804570DD4D494E48884514DDB0420DDB89
:10515000002C19DB2FE0012001F07EF916B0BDEC28
:105160000E8B04B0BDE8F04D01F022B9B34502DC6E
:10517000002C09DC1FE0864202DA002C1BDA03E077
:105180005E452BDD002C16DD022001F065F901F0F3
:105190001FF98DED020B53EC1A2B51EC180BFBF79A
:1051A00039F9CDE900010399019861F31E000390DC
:1051B0009DED020BC4E6022001F04EF901F018F952
:1051C00010EE901A18EE900A8DED020B8DED008B0B
:1051D00061F31E0003909DED020BB1E69DED0E0BF9
:1051E00053EC192B51EC100BFBF70EF99FED260B2E
:1051F000CDE9080153EC102B9DED080B51EC100B81
:10520000FBF708F99FED221B53EC112BFBF7FFF87E
:105210009DED081B53EC112BFBF7FCF89FED1E1BBB
:1052200053EC112B3CE08CE0FFFF1F00FFFF0F0051
:10523000000000000000F03F0000F03F0000F07FA1
:105240000000404301FCFFFF000000000000F07F71
:105250000000000000000000767700000000000061
:105260000000000000000080000000000000F0FFCF
:10527000000000000000F0BF0000E0410000F0432B
:10528000FFFFEF3F00000000000000000000D03FE3
:10529000555555555555D53F000000000000E03FDD
:1052A000FBF7B5F89DED080B41EC1A0B53EC102BF6
:1052B00051EC100BFBF7AEF853EC1A2BFBF7AAF8E6
:1052C00041EC1A0B9FEDFE0B53EC102B9DED080BE0
:1052D00051EC100BFBF79EF841EC1B0B9FEDFA0B0A
:1052E00051EC1A0B53EC102BFBF794F841EC1A0B12
:1052F0009FEDF70B53EC102B9DED080B51EC100BB1
:10530000FBF788F853EC1A2BFBF77EF841EC1A0BED
:1053100051EC1B0B53EC1A2BFAF7D5FF0690CDE995
:1053200006519DED060B53EC1B2B51EC100BFBF7BC
:105330006BF853EC1A2BFBF76AF841EC100B00F0FA
:10534000A1B90020B6F5801F0EDA9FEDE30B53ECF8
:10535000102B9DED0E0B51EC100BFBF75BF8CDE91C
:105360000E016FF034000E4600EB2650A0F2FF371E
:10537000C6F31300DA4940F07F6646F04056884293
:10538000D8BF002408DDD7498142C8BF012403DC0F
:105390000024A6F580167F1CD348784400EBC40097
:1053A0000F9690ED00CB9DED0E0B53EC1C2B51ECAA
:1053B000100BFBF729F89DED0E0B41EC1B0B53EC8A
:1053C0001C2B51EC100BFAF77EFF41EC100B51EC4B
:1053D000190B53EC102BFBF78FF841EC1D0B51EC24
:1053E0001B0B53EC1D2BFBF715F841EC1A0BBF48B8
:1053F0008DED10AB7844109590ED000B4FF0005000
:1054000040EA660000EB84408DED080B00F50020BB
:1054100009909DED080B53EC1C2B51EC100BFAF787
:10542000F3FF9DED0E1B53EC112BFAF7F0FF41EC4F
:10543000100B53EC102B9DED100B51EC100BFAF7E9
:10544000E9FF9DED080B41EC1C0B53EC102B9DED7F
:10545000100B51EC100BFAF7DDFF53EC1B2BFAF796
:10546000D6FF53EC1C2BFAF7CFFF53EC1D2BFAF7AA
:10547000D1FF41EC1C0B53EC1A2B51EC1A0BFAF731
:10548000C9FF41EC1B0B9A480621B0EE4B0AF0EE27
:105490006B0A784400F03CFDB0EE401AF0EE601A62
:1054A000B0EE41DAF0EE61DA53EC1B2B51EC1B0B42
:1054B000FAF7B0FF53EC1D2BFAF7ACFF9DED100B84
:1054C00041EC1B0B53EC1A2B51EC100BFAF7FBFEC3
:1054D00053EC1C2BFAF79EFF53EC1B2BFAF7F3FE51
:1054E0009DED100B41EC1B0B53EC102B51EC100BF2
:1054F000FAF790FF41EC1D0B9FED7FEB53EC1E2B59
:10550000FAF7E1FE53EC1B2BFAF7DDFE0890CDE92C
:1055100008519DED080B53EC1E2B51EC100BFAF7C4
:1055200073FF53EC1D2BFAF76FFF53EC1B2BFAF7AD
:105530006EFF9DED080B41EC1D0B53EC102B9DED08
:10554000100B51EC100BFAF765FF41EC1B0B53EC01
:105550001A2B51EC1D0BFAF75DFF9DED080B41EC8A
:105560001A0B53EC102B51EC1C0BFAF753FF53ECB6
:105570001A2BFAF7A8FE41EC1A0B51EC1B0B53EC5B
:105580001A2BFAF7A0FE0C90CDE90C519DED0C0BF7
:1055900053EC1B2B51EC100BFAF736FF53EC1A2B84
:1055A000FAF735FF41EC1B0B9FED550B53EC102B1D
:1055B0009DED0C0B51EC100BFAF72CFF41EC1A0B84
:1055C0009FED510B51EC1B0B53EC102BFAF722FF04
:1055D00041EC1B0B9FED4E0B53EC102B9DED0C0B78
:1055E00051EC100BFAF716FF53EC1B2BFAF76BFE7E
:1055F00041EC100B4848784400EBC40090ED001BD0
:1056000051EC100B53EC112BFAF75DFE41EC1B0B28
:105610003846FAF7E0FFCDE9080153EC1B2B51ECBB
:105620001A0BFAF750FE41EC100B3C48784400EBA3
:10563000C40090ED00CB51EC100B53EC1C2BFAF78F
:1056400042FE9DED081B53EC112BFAF73CFE069031
:10565000CDE906519DED080B53EC102B9DED060B8B
:1056600051EC100BFAF7D0FE53EC1C2BFAF7CCFEE2
:1056700053EC1A2BFAF7C8FE53EC1B2BFAF7C7FEB4
:1056800041EC100B9DED261B53EC102B8DED001BF8
:1056900000959DED260B51EC100BFAF7BBFE9DED2E
:1056A000000B41EC1A0B53EC102B9DED260B51EC2B
:1056B000100BFAF7A9FE9DED061B53EC112B2FE002
:1056C000000000604715F73FFE822B654715F73F46
:1056D00044DF5DF80BAE543E000000000000404384
:1056E0008E9803007AB60B00F2720000207300005F
:1056F0002A720000000000000000000000000840C6
:10570000000000E009C7EE3FFD033ADC09C7EE3FA9
:10571000F5015B14E02F3EBEB67000007070000013
:10572000FAF778FE53EC1A2BFAF7CDFD9DED060B38
:1057300041EC1A0B53EC102B9DED000B51EC100BB0
:10574000FAF768FECDE90C019DED0C0B51EC1A0B3C
:1057500053EC102BFAF7B7FDCDE902010C46AA492C
:105760008C422FDB611A084318D19DED0C0B53ECD2
:10577000102B9DED020B51EC100BFAF745FE41EC9E
:105780001B0B9FEDA30B51EC1A0B53EC102BFAF7EC
:105790009AFD53EC1B2BFAF79FFF2DD2022000F04D
:1057A0005BFE00F015FE10EE901A18EE900A8DEDDB
:1057B000020B8DED008B61F31E0003909DED020B3B
:1057C000FFF7BEBB944A24F00041914214D39349A1
:1057D000214408437FF4EFAC9DED0C0B53EC102BF0
:1057E0009DED020B51EC100BFAF70EFE53EC1A2B49
:1057F000FAF772FF7FF6DFAC24F000408849894A4F
:10580000002601EB205182422BDA481C4FF4801114
:1058100021FA00F02044844AC0F30A517A44A1F2EC
:10582000FF3192ED000B814A8DED080BCA4020EA52
:105830000202C0F3130040F48010C1F1140120FAF9
:1058400001F60992002CB8BF76429DED080B53EC8F
:10585000102B9DED0C0B51EC100BFAF7D5FDCDE99B
:105860000C019DED0C0B51EC1A0B53EC102BFAF7BD
:105870002AFD9FED6F0B0890CDE9085153EC102BDA
:105880009DED080B51EC100BFAF7C4FD41EC1B0B1E
:105890009FED690B53EC102B9DED080B51EC100B99
:1058A000FAF7B8FD9DED0C0B41EC1C0B53EC102BE3
:1058B0009DED080B51EC100BFAF7A6FD53EC1A2BDB
:1058C000FAF7A5FD9FED5E1B53EC112BFAF7A2FD35
:1058D00053EC1C2BFAF7F7FC41EC1A0B51EC1B0BA9
:1058E00053EC1A2BFAF7EFFCCDE902019DED020B08
:1058F00053EC1B2B51EC100BFAF786FD53EC1A2BD3
:10590000FAF785FD9DED020B41EC1A0B53EC102BC1
:1059100051EC100BFAF77EFDCDE908014A489DEDE8
:10592000080B0521784400F0F3FA9DED081B51ECBB
:10593000100B53EC112BFAF76DFD9DED021B53EC90
:10594000112BFAF764FDCDE906019DED020B53EC36
:105950001A2B51EC100BFAF75DFD53EC1A2BFAF7EA
:10596000B2FC9FED3B0B41EC1A0B53EC102B9DED61
:10597000060B51EC100BFAF747FD9DED060B41ECC1
:105980001B0B53EC102B9DED020B51EC100BFAF797
:1059900041FD53EC1B2BFAF7AFFD53EC1A2BFAF732
:1059A00033FD9DED021B53EC112BFAF72DFD53EC4B
:1059B000192BFAF72CFDCDE9020101EB0650011578
:1059C0000029C8BF039015DC9DED020B324651EC57
:1059D000100BFAF77AFFFEF7BDFC042808BF00F0B1
:1059E00007FD32469DED020B51EC100BFAF76DFFEF
:1059F000CDE902019DED020B51EC180B53EC102B7D
:105A0000FAF708FDFFF73ABB0000904000000000E5
:105A1000FE822B654715973C00CC904000346F3FC9
:105A200001FCFFFF0000E03FF86E0000FFFF0F00E9
:105A300000000000432EE63F396CA80C615C20BEDC
:105A4000EF39FAFE422EE63FC86D0000000000006C
:105A5000000000000000004010B51D499FED1A1B1A
:105A60002DED020B84B0059820F000408842DCBF89
:105A700001209DED040B21DD1649884209D10498CF
:105A800040B94FF0010000F0E7FC00F091FC06B0D7
:105A900010BD05DB9DED040B00F076FC06B010BDDB
:105AA00068469DED040B00F017F800F0010001219D
:105AB000A1EB40009DED021B9DED000B00F0A4FA50
:105AC00006B010BD00000000000000000000000053
:105AD000FB21E93F0000F07F2DE9F14F04462DED59
